:020000040800F2
:1000000000900020015B0008295A00082B5A0008C4
:1000100000000000000000000000000000000000E0
:10002000000000000000000000000000B5DD000836
:10003000000000000000000081DE0008C5DE0008AE
:10004000515B000800000000515B0008515B000894
:10005000515B0008515B0008515B0008515B0008D0
:1000600000000000515B0008515B0008515B000874
:10007000515B0008515B0008515B00080000000064
:100080002D5A0008515B0008515B0008515B0008C5
:10009000515B0008515B0008395A0008515B0008A9
:1000A000515B0008515B0008515B0008495A000889
:0800B0005D5A0008715A0008B6
:1000C00010B5064C2378002B07D1054B002B02D02E
:1000D000044800E000BF0123237010BD4C05002040
:1000E000000000001C100108044B10B5002B03D0C9
:1000F0000349044800E000BF10BDC04600000000F6
:10010000500500201C10010802780B78002A03D04B
:10011000013001319A42F7D0D01A70470023C25CF7
:100120000133002AFBD1581E7047000002B471460B
:1001300049084900095649008E4402BC7047C04630
:1001400002B4714649084900095C49008E4402BC6A
:100150007047C04603B47146490840004900095E33
:1001600049008E4403BC704703B4714649084000FF
:100170004900095A49008E4403BC704700224308D5
:100180008B4274D303098B425FD3030A8B4244D35F
:10019000030B8B4228D3030C8B420DD3FF220902A1
:1001A00012BA030C8B4202D31212090265D0030B60
:1001B0008B4219D300E0090AC30B8B4201D3CB0356
:1001C000C01A5241830B8B4201D38B03C01A524198
:1001D000430B8B4201D34B03C01A5241030B8B429A
:1001E00001D30B03C01A5241C30A8B4201D3CB0285
:1001F000C01A5241830A8B4201D38B02C01A52416A
:10020000430A8B4201D34B02C01A5241030A8B426C
:1002100001D30B02C01A5241CDD2C3098B4201D384
:10022000CB01C01A524183098B4201D38B01C01A02
:10023000524143098B4201D34B01C01A5241030979
:100240008B4201D30B01C01A5241C3088B4201D328
:10025000CB00C01A524183088B4201D38B00C01AD5
:10026000524143088B4201D34B00C01A5241411AFC
:1002700000D20146524110467047FFE701B5002009
:1002800000F0F0F802BDC0460029F7D076E77047CD
:1002900003460B437FD4002243088B4274D30309E7
:1002A0008B425FD3030A8B4244D3030B8B4228D388
:1002B000030C8B420DD3FF22090212BA030C8B42AE
:1002C00002D31212090265D0030B8B4219D300E04E
:1002D000090AC30B8B4201D3CB03C01A5241830BD3
:1002E0008B4201D38B03C01A5241430B8B4201D383
:1002F0004B03C01A5241030B8B4201D30B03C01AAC
:100300005241C30A8B4201D3CB02C01A5241830A25
:100310008B4201D38B02C01A5241430A8B4201D354
:100320004B02C01A5241030A8B4201D30B02C01A7E
:100330005241CDD2C3098B4201D3CB01C01A5241E5
:1003400083098B4201D38B01C01A524143098B426E
:1003500001D34B01C01A524103098B4201D30B0157
:10036000C01A5241C3088B4201D3CB00C01A52417C
:1003700083088B4201D38B00C01A524143088B4241
:1003800001D34B00C01A5241411A00D201465241DA
:10039000104670475DE0CA0F00D04942031000D3F9
:1003A0004042534000229C4603098B422DD3030A4E
:1003B0008B4212D3FC22890112BA030A8B420CD35E
:1003C000890192118B4208D3890192118B4204D387
:1003D00089013AD0921100E08909C3098B4201D307
:1003E000CB01C01A524183098B4201D38B01C01A41
:1003F000524143098B4201D34B01C01A52410309B8
:100400008B4201D30B01C01A5241C3088B4201D366
:10041000CB00C01A524183088B4201D38B00C01A13
:100420005241D9D243088B4201D34B00C01A5241EA
:10043000411A00D20146634652415B10104601D377
:100440004042002B00D54942704763465B1000D301
:10045000404201B5002000F005F802BD0029F8D0A7
:1004600016E770477047C046844608006146FFE7BC
:100470001FB500F03FFA002801D40021C8421FBD7B
:1004800010B500F0CBF94042013010BD10B500F0BE
:1004900031FA002801DB002010BD012010BDC0464C
:1004A00010B500F027FA002801DD002010BD012062
:1004B00010BDC04610B500F0D7F9002801DC0020BF
:1004C00010BD012010BDC04610B500F0CDF90028C8
:1004D00001DA002010BD012010BDC046002B15D14F
:1004E000002A13D1002906DB01DC002806D00020F9
:1004F000C043410802E080210906002007B40248F9
:1005000001A14018029003BD5DFFFFFF03B46846E0
:1005100001B5029800F04CF8019B9E4602B00CBC5D
:100520007047C046F0B5CE46474680B507009946AD
:100530003B0C9C4613041B0C1D000E00614600047E
:10054000140C000C45434B4360436143C0182C0C12
:1005500020188C46834203D980235B029846C4440A
:10056000494679437243030C63442D042D0CC9188A
:10057000000440198918C0BCB946B046F0BDC04659
:100580009E2110B5C905041CFFF79EFF002803D16A
:10059000201C00F0C7FC10BD9E21201CC90500F0E6
:1005A00013FB00F0BFFC80231B069C466044F2E76F
:1005B000F8B5CE46474680B59146984604000D00F2
:1005C00001F0A6FC07000E0002000B004846414661
:1005D000FFF7A8FF241A8D41089B380031001C60EA
:1005E0005D60C0BCB946B046F8BDC046F0B54F46E8
:1005F0004646D6464502C0B547000C1C6D0A3F0E64
:10060000C60F002F00D170E0FF2F00D175E0EB0086
:100610008025ED041D43002399469A467F3F6002E2
:10062000430A984663001B0EE40F002B4ED0FF2BAD
:1006300046D04246D0008022D20402439046002297
:100640007F3B3100FF1A4B466140C9B213430F2B69
:1006500000D9B5E06E489B00C3589F4600239846DA
:100660002600454692465346022B00D189E0032BD3
:1006700000D19EE0012B18D03B007F33002B69DDB9
:100680006A0704D00F222A40042A00D004352A0128
:1006900003D5604B1D403B008033FE2B00DD70E036
:1006A000AD016D0AD8B202E00E0000200025C005A1
:1006B0002843F6073043E0BCBA46B146A846F0BD31
:1006C0004346002B3FD10222FF3F03E04346002B6D
:1006D0002DD1012231004B466140C9B213430F2B8B
:1006E00034D84D489B00C3589F46002D13D1042396
:1006F0009946033B00279A4691E7002D05D1082330
:100700009946063BFF279A4689E70C239946093B01
:10071000FF279A4683E7280001F0DCFB7627431F7A
:100720009D4000237F4299469A463F1A77E740460C
:1007300001F0D0FB4246431F9A4076235B4290462D
:100740001B1A00227DE7FF2303227AE70E00FF2019
:100750000025ACE70120C01A1B28A6DC9E372A0022
:10076000BD40C2406B1E9D4115436B0704D00F2353
:100770002B40042B00D004356B0144D5012000250B
:1007800095E7FF20002592E780250026FF20ED0356
:100790008DE7002398468020C003054209D04346D8
:1007A000034206D1454605436D022600FF206D0A2F
:1007B0007DE78020C00305436D02FF206D0A76E7C8
:1007C00042466B015001834219D21B220025013F92
:1007D00001261C006D005B00002C01DB984201D853
:1007E0001B1A3543013A002AF3D15A1E93411D4387
:1007F0003B007F330E00002B00DD41E7AAE71A2201
:1008000001251B1AE4E7AD0100206D0A4FE7C04641
:1008100030110108FFFFFFF77011010870B54200A9
:1008200045024E024C00C30F6D0A0120120E760ADB
:10083000240EC90FFF2A06D0FF2C03D0A24201D1FB
:10084000B54206D070BD002DFCD1FF2CFAD1002E90
:10085000F8D18B4206D00120002AF3D12800431E94
:100860009841EFE70020EDE770B5420045024E02E7
:100870004C00C30F6D0A120E760A240EC80FFF2A11
:100880001BD0FF2C0ED0002A1BD1002C01D1002E32
:100890001CD0002D0CD083421CD00221581E0840D1
:1008A000013870BD002E22D1002AF4D1002DF2D1E2
:1008B0000028F6D101204042F3E7002D17D1FF2C8C
:1008C000F0D0002CE7D1002EE5D1E6E70020002D86
:1008D000E7D0E2E7A24205DCEADBB54202D8E7D383
:1008E0000020DEE74342584140000138D9E70220AA
:1008F0004042D6E770B5420045024E024C00C30F9D
:100900006D0A120E760A240EC80FFF2A0BD0FF2C98
:100910000DD0002A1FD1002C16D1002E14D100209A
:10092000002D10D009E0002D0CD1FF2C13D1002E8A
:1009300008D1002A08D0834212D00221581E084054
:10094000013800E0022070BD002DF4D10028FAD15A
:1009500001204042F7E7002CEDD1002EEBD1ECE76F
:10096000A24205DCF2DBB54202D8EFD30020EAE771
:100970004342584140000138E5E7C046F0B54F46D4
:100980004646D64644024500C0B5640A0F1C2D0EEB
:10099000C60F002D00D18DE0FF2D00D192E0002385
:1009A000802099469A46E400C00404437F3D7802C3
:1009B000430A98467B001B0EFF0F002B00D170E00E
:1009C000FF2B00D186E04246D00080227F3BED180D
:1009D0000023D204024390469C4631004B467940A6
:1009E000681C0F2B1CD8764A9B00D3589F463900B1
:1009F0004446E2465346022B0FD0032B00D1D7E0EA
:100A0000012B37D100200024C0052043C90708432B
:100A1000E0BCBA46B146A846F0BDFF200024F3E78B
:100A2000260C2404220C44462404240C43462700AC
:100A30001B0C574374435A435E4312193B0C9B18DB
:100A40009C4203D980225202944666443F041A0411
:100A50003F0CD2199401671EBC411B0C920E9B19CE
:100A600014439B011C431B0100D49BE0012362083B
:100A70001C40144302007F32002A64DD630704D067
:100A80000F232340042B00D00434230103D502009C
:100A90004C4B80321C40FE2ABFDCA401640AD0B259
:100AA000B2E74346002B3DD14A4601331A439146F3
:100AB0009C4692E7002C29D104239946033B00254C
:100AC0009A4674E7002C1BD108239946063BFF2564
:100AD0009A466CE74346FF35002B0BD102234A466A
:100AE0001A4391469C4678E753463100022B00D0CA
:100AF00083E792E703234A461A4391469C466CE7F4
:100B00000C239946093BFF259A4650E7200001F047
:100B1000E1F97625431F9C4000236D4299469A4691
:100B20002D1A44E7404601F0D5F94246431F9A404A
:100B300000232D1A90469C46763D4EE780240021E6
:100B4000FF20E40360E701239B1A1B2B00DD59E71C
:100B500022009E30DA4084401300621E94411C4300
:100B6000630704D00F232340042B00D00434630117
:100B70001AD50120002447E78020C003044209D091
:100B80004346034206D14446044364023900FF2031
:100B9000640A39E78020C003044364023100FF2067
:100BA000640A31E7280065E7A4010020640A2BE706
:100BB0008020C00304436402FF20640A24E7C04687
:100BC000B0110108FFFFFFF7F8B5CE4647464302D4
:100BD0005B0A4E02DA009446720A914645004A00CA
:100BE00080B52D0E1F00C40F120EC90FB609FF2AC3
:100BF0005BD0012041408C4239D0A81A00285ADD30
:100C0000002A6AD0FF2D00D1D9E08022D2041643F9
:100C10001B2800DCE9E001206346181A430100D4D8
:100C2000B4E080018709380001F054F905388740A5
:100C3000854200DCCCE02D1AB5483840430704D08B
:100C40000F230340042B00D00430430100D4A0E064
:100C50006A1CFE2D00D18DE08001470AD2B2D0057A
:100C60003843E4072043C0BCB946B046F8BDA81AD3
:100C70008046002845DD002A70D0FF2D00D19EE07F
:100C80008023DB041E4343461B2B00DCD2E0012003
:100C9000604443017AD50135FF2D6BD001239D4A75
:100CA0000340400810401843C8E7002E20D08C4273
:100CB00023D02800FF38002839D0571B002D00D042
:100CC0009DE06346002B00D1DBE07B1E012F00D1AD
:100CD0000DE1FF2F71D01F0098E0002E00D1A7E09A
:100CE000421E012800D1E6E0FF2868D010008FE7FF
:100CF00001204140A14200D07FE7FF2040428046D2
:100D0000A8444046002838D0511B002D00D1AEE049
:100D1000FF2A00D1DFE080236046DB0418438446CD
:100D20001B2900DCD9E0012015008019B1E7FE2065
:100D30006A1C104271D1002D00D0A6E06346002B42
:100D400000D1D9E00022002E00D188E7981B430192
:100D500000D4E1E063460C00F01A6FE7002E00D1EA
:100D6000B7E00200013A012800D19CE0FF2826D01C
:100D7000904688E7FF22002771E7FE206A1C104298
:100D800064D0FF2AF6D0150066447008430700D0EF
:100D900056E7C308FF2D12D05B025F0AEAB25EE796
:100DA0006246002A00D196E0002E08D08022D203AD
:100DB000134204D04846104201D10C004B46002B90
:100DC000D8D08027FF031F437F02FF227F0A46E718
:100DD00020233A00451B38000135EA405D1BA8403E
:100DE000431E98410025104328E720231B1A320098
:100DF0009E40C2403000431E984110430CE7FF2A3A
:100E0000DBD080236046DB04184384461B2F56DD6D
:100E100001200C001500301A00E763469F1B7B0180
:100E20003DD4002F00D0FEE600240022002716E764
:100E30000500AFE7320043464146DA4020235B1A03
:100E40009E403000431E9841104321E7002DA7D15A
:100E50006346002B59D00022002E00D1FFE630005F
:100E60006044430192D52A4B013518408EE7634612
:100E7000002B47D04B1E012915D0FF292BD019007C
:100E80004EE70C004B463D0084E76246002A8BD1BA
:100E9000002E92D180270024FF22FF03DFE6634665
:100EA0000C00F71ABFE6300060440125430100D46E
:100EB0006CE70225F2E663460125981BAEE6202387
:100EC00064466046FC40DF1BB840431E9841204307
:100ED0009FE705005EE74B4671E7202365466046C5
:100EE000CD40591A8840431E984128431CE7634669
:100EF0000C000125F01A91E6002E95D00C004F460B
:100F00000022ACE64B460D0044E74F460022A6E621
:100F1000FFFFFFFBFFFFFF7D002800D036E7002426
:100F200000279CE641024200C30F490A0020120E2E
:100F30007E2A03DD9D2A02DD094A98187047802029
:100F400000040143952A07DC9620821AD1404842CA
:100F5000002BF3D10800F1E7963A9140F7E7C0463D
:100F6000FFFFFF7FF8B5002813D0C317C6185E40F7
:100F7000C40F300000F0AEFF9E2305001B1A962B15
:100F80000FDC082801DD083DAE407602760AD8B2B3
:100F900002E0002400200026C0053043E40720437F
:100FA000F8BD992B0CDD05223100121AD1400A0040
:100FB000010030001B318840411E88410243160069
:100FC000052D12DC31000D4F3940720709D00F207A
:100FD0003040042805D004314A0102D59F2339400E
:100FE0005B1B89014E0AD8B2D6E76A1F96403100D2
:100FF000024F39407207F4D0E9E7C046FFFFFFFB1C
:1010000070B5051E0ED000F065FF9E2304001B1A6C
:10101000962B0CDC082801DD083CA5406D026D0A0A
:10102000D8B201E000200025C005284370BD992BEF
:1010300009DD020029001B3291404A1E9141052220
:10104000121AD5400D43052C12DC29000C4E3140FC
:101050006A0709D00F202840042805D004314A012E
:1010600002D59F2331401B1B89014D0AD8B2DBE713
:10107000621F95402900024E31406A07F4D0E9E72B
:10108000FFFFFFFBF0B54F464646D6460D00040075
:10109000C0B51F0011002803620F400A10437A00F8
:1010A000520DE3003C039146640AFA0F4F0F6E00A5
:1010B00027439246B846760DED0FC900954200D100
:1010C00099E04C46341BA446002C00DC7CE04A46E8
:1010D000002A00D1B8E0C54A964200D11CE1802226
:1010E0003C0012041443A0466246382A00DD61E148
:1010F0001F2A00DDCCE164462022121B44469440A6
:101100000F00A14664469140E7404C464A1E91417B
:101110003C43424621436446E240801A5C1AA342A3
:101120009B415F42C71B3B0200D4D0E07F027F0A95
:10113000002F00D1FFE0380000F0CCFE010008399C
:10114000202322005B1A8F40DA408C401743B142C3
:1011500000DAFFE0891B4B1C1F2B00DDA8E02022DA
:101160003900D21A200094409140D840621E944128
:10117000DF40002601430C43630709D00F232340BF
:10118000042B05D0231DA342A44164423F191C0037
:101190003B0200D49EE0954B01369E4200D1B7E061
:1011A000934AE40817407B0771057F0223433F0BF6
:1011B0004A0D12053A43ED072A4318001100E0BC1E
:1011C000BA46B146A846F0BD002C4BD04C46A41BF5
:1011D000A446002E00D023E104001C4300D1AFE15F
:1011E0006246541E012A00D115E2804DAC4500D163
:1011F000C8E1A4461BE14A46B21A9446002A00DC24
:10120000ACE04A46002A43D0784A964200D1AFE18A
:1012100080223C0012041443A0466246382A67DC50
:101220001F2A00DC5FE14746203AD7406246202A69
:1012300005D064464022121B4446944021434A1E76
:1012400091410C003C4357E03A000A4300D105E1CC
:101250002200013A012C00D182E1644CA4455BD00C
:10126000944641E7634C771C274200D0C4E0040059
:101270001C43002E00D069E1002C00D1BFE14446A0
:101280000C4300D0D0E14207DB081343C00829E03B
:101290003A000A4300D170E162466446013A012CEB
:1012A00000D1E0E0514CA44500D161E19446B4E79F
:1012B0003A001F39CA401100202B03D04022D31A14
:1012C0009F403C43631E9C41002700260C4363075C
:1012D00000D053E7B446E4087B072343F808434AA9
:1012E00094451DD06246070352053F0B520D60E73F
:1012F00044460C43621E9441E4189C429B415F4269
:101300003F183B02E3D5394B01369E4200D0B5E091
:101310003200002700234CE74207DB081343C008D4
:101320001A00024300D1E1E180273F0307433F0356
:101330002E4A3F0B3DE7200000F0CCFD01001831A4
:101340001F2900DCFCE60838844027000024B14255
:1013500000DBFFE6264A761A17400DE7002A2FD059
:101360004A46921B9446002E00D1ADE01F4A91459B
:1013700000D10FE18022120410436246382A00DDBA
:101380000FE11F2A00DD80E1644620221E00121BAF
:101390006746040093409440FE405A1E9341F84033
:1013A00034431C43804464188C42BF417F424E4604
:1013B0004744A6E742460A4311004A1E9141ADE662
:1013C0000C4C721C224200D0A1E002001A43002EF5
:1013D00000D0FAE0002A00D145E13A000A4300D0EB
:1013E00046E14207DB081343C0087BE7FF07000024
:1013F000FFFF7FFFFE07000047465C1AC21BA342A7
:10140000BF417F42B94617004A46BF1A3A0200D58B
:101410008DE023003B4300D08AE60020002561E7F1
:10142000B44CA14500D1ADE080242404204364469F
:10143000382C3DDC62461F2C00DDB7E020251E0065
:101440002D1B0400AB40AC40D640D04042465D1E50
:10145000AB413443121A904623432CE04207DB0889
:101460001343C0083BE75C189C429B4140445B42ED
:10147000C71801263B0200D429E702269E4A6308CA
:101480001740012214401C43FB071C437F0873E6EE
:101490004446203AD4406246202A05D0674640227E
:1014A000D21B4746974039434A1E9141214335E6B6
:1014B0000343581E8341CC1AA142BF4143467F4299
:1014C00055464E46DF1B2EE602001A4300D1BDE012
:1014D00062466446013A012C00D1E5E0854CA44502
:1014E00058D0944649E764462022121B4446944053
:1014F0000F00A14664469140E7404C464A1E914188
:101500003C4342460C436146CA408018F4E6794C9D
:10151000A24200D1FDE6591899429B4140445F42E6
:10152000C719FC07490816000C437F08CFE6CC1A00
:10153000A142BF4143467F42181A5546C71BF7E5F3
:10154000C9087B0755460B43F808C8E6002C00D0B5
:1015500081E043460B4315D1802000250003E3E6DC
:101560005C1AA3429B41C71B5B420126FF1ADAE5C6
:101570004207DB081343C008D2E64207DB081343E7
:10158000C008ACE643464246C9085B0755460B43D4
:10159000D008C5E6434642465B07C9080B43D0085E
:1015A000BEE603431C00631E9C41FCE60200203C97
:1015B000E24014006246202A03D04025AD1AA8401C
:1015C0000343581E8341234375E7002AE2D03A00C3
:1015D0000A43CDD04207DB0813438022C008120320
:1015E000104206D0FC08144203D12000CB087A0731
:1015F00013435A0FDB005207DB08134390E64346C0
:101600000B4300D109E743464246C9085B075546EC
:101610000B43D00866E6CC1AA14289413F1A4942E1
:10162000554601267F1A7EE542465C1A871AA34278
:1016300092415242BF1A3A023DD5CC1AA142894189
:10164000434649421F1A55467F1A95E57B07C9084C
:101650000B43F80843E64446DB080C4330D142070D
:101660001343C0085CE67B07C9080B43F80839E65A
:101670005C189C429B4140445B42C7183B0200D42B
:1016800025E61D4B01261F4021E60400203AD440E8
:101690006246202A04D040226646921B90400343B3
:1016A0005A1E93411C437EE65C188C42894140449B
:1016B00049424718DDE623003B4300D1ADE606E68C
:1016C000440723438024C0082403204208D0424614
:1016D000D608264204D155463000CB0851070B43AB
:1016E0005A0FDB00DB085207134319E60023014AB7
:1016F0001F005EE5FF070000FFFF7FFFF0B55746C4
:101700004E464546DE46E0B5814605000C034800DE
:1017100092461F0085B0240B400DCE0F002800D14B
:1017200056E1D44B984200D172E16B0FE4001C43A8
:1017300080231B0423439846CF4BED009B46002398
:101740009946834400933C037B005046240B5B0D79
:10175000FF0F002B00D11FE1C64A934200D162E186
:10176000C549420F8C46E400594614438022634425
:101770001204CB1A14439B46C200002033007B4066
:101780009A464B460F2B27D8BC499B00CB589F4607
:10179000B246009B022B16D0032B00D18EE2012B08
:1017A00000D0D9E000230024002552461B05234326
:1017B000D20713432800190005B0F0BCBB46B2465F
:1017C000A946A046F0BD00240025AA4BEDE7BA4685
:1017D000A04615000090DCE7444500D2C7E100D1E7
:1017E000C2E101235B429C462E0040460025E344B3
:1017F0002302140E1C431B0C994623041F0C1202D7
:10180000494600920197FEF73FFD02007A430B0420
:10181000310C804619438A4207D901235B429C461A
:101820000919E0448C4200D807E2881A4946FEF7BD
:101830002BFD09048C4631046646019A090C42438B
:10184000030031438A4204D90919013B8C4200D874
:10185000EDE1881A424612041A4390464146009B25
:101860000E041B0C1F000293009B360C1B04190C6A
:101870000B007343120C7E43039151437A431F0CB8
:10188000BC4676186644B14203D9802149028C4691
:101890006244310C8A1831041E04360C8E199042B1
:1018A00002D312D1B54210D24346591E009B9C462A
:1018B00065441F009D429B415B421B19C018844236
:1018C00000D2A0E100D19BE18846AE1BB542AD41FC
:1018D000801A6D42401B844200D1D5E14946FEF793
:1018E000D3FC019A0B044243310C050019438A4290
:1018F00000D96CE1881A4946FEF7C6FC019A360405
:1019000042430904360C03000E43B24200D953E1AE
:101910000398B61A02002D041D43029F2B041B0CD2
:101920005A437B439C46290C4843130C844463442C
:101930007943984203D98020400284466144180CC0
:1019400012041B04120C41189B188E4200D2FFE0B7
:1019500000D1FAE001231D43494A5A44002A00DC21
:10196000AAE06B0700D03DE1ED084346DB0106D558
:101970004246444B1A4090468022D2005A44424B81
:101980009A4200DD1FE743465B071D43434652056D
:101990005C02240B530D08E75246224300D17BE042
:1019A000002C00D1FAE0200000F094FA02000B3A7B
:1019B0001D2301009B1A52460839DA408C4014431B
:1019C00052468A40314B58449B4683440020D5E61A
:1019D0004B462343984644D0002C00D1CEE0200053
:1019E00000F078FA010002000B391D235B1A49460A
:1019F0001000D940083884400B004D4623439846D8
:101A000085402348831A9B460023994600939AE613
:101A10004B46234398461DD108239946063B002593
:101A2000834600938FE65246224309D1022349465A
:101A30001943184B89469C4600240220E3449DE646
:101A400003234A461A43134B91469C4652460320B1
:101A5000E34493E60C239946093BA0468346009352
:101A600071E60423994600239B4601330025009329
:101A700069E6C046FF07000001FCFFFFF011010806
:101A8000FF030000FFFFFFFEFE070000F30300005E
:101A90000DFCFFFF01F8FFFF49460123194389466A
:101AA000002401206AE6002380249A4600258A4B00
:101AB00024037AE601256D4201239B1A382B00DDB1
:101AC00070E61F2B00DCBFE01F2149428A1A414605
:101AD000D1400A00202B04D04146804B5B44994002
:101AE0000D436B1E9D4107232A431D000024154012
:101AF000134200D1D4E00F2100231140042900D16A
:101B0000CBE0111D9142924152429B180A001902EA
:101B100000D4C2E001230024002546E6802341468C
:101B20001B03194208D01C4206D11C432403BA46A9
:101B30001500694B240B38E68024434624031C43DC
:101B40002403B246644B240B2FE6002B00D103E79D
:101B5000A619681EA64200D28DE08E4200D2A3E0F4
:101B600000D1B3E00500F5E6AA4200D939E64346C4
:101B7000DE0758086B081E43ED0739E6484600F0BB
:101B8000A9F901000200153120321C2900DC2CE7E4
:101B90004B46083883400025984632E700F09AF912
:101BA00003001A00153220301C2A00DC00E75446DE
:101BB000083B00229C4005E73619013BB44200D99E
:101BC000A6E6B24200D8A3E6831E3619A0E609199C
:101BD000013D8C4200D98DE68A4200D88AE6851EF6
:101BE000091987E60F232B40042B00D1BCE60523FF
:101BF0005B42AB429B4104355B42ED089844B4E63E
:101C0000AF4200D960E6824204D800D05CE6AE4222
:101C100000D859E602235B429C46009BE0449C4668
:101C200065449D429B415B421B19C0184DE68A42A8
:101C300000D80EE6831E09190BE68A4200D8F4E5A7
:101C4000831E98460919F0E52549280059448D401E
:101C500042468A40691E8D414146D840D9400243E0
:101C60002A430B00510700D151E70F2111400429ED
:101C700000D046E74BE705008E4200D06AE6009AA6
:101C8000934200D066E667E6164A5A44002A00DC12
:101C900010E701230025984467E65D075B021C0BF3
:101CA000D2080023154380E50098023D420082429D
:101CB000BF417F423C1936190092DDE7802443463C
:101CC00024031C432403044B240B6EE5009A9A4220
:101CD000EAD30500D3E7C046FF0700003E0400003A
:101CE0001E040000FF03000010B5041E10D000F019
:101CF000F1F80F4B1B1A0A2811DC0B222100121AD3
:101D0000D14015300A035B058440120B5B0D01E0E6
:101D1000002300221B0513432000190010BD2200E0
:101D20000B3882405B0512030024120B5B0DF1E7B8
:101D30001E04000070B543004602C40FFE201B0EB7
:101D4000591C750A08420CD0E022920094466D0797
:101D5000360B63441B053343E40723432800190073
:101D600070BD002B14D1002D1BD0280000F0B2F85C
:101D70000A281CDC0B232E001B1ADE40030015333F
:101D80009D400E4A3603121A5205360B530DE1E7F9
:101D9000002D09D08022360B1203094B6D07164324
:101DA000D8E700230026D5E70026054BD2E703003D
:101DB0000B3B9D402E000025E3E7C0468903000051
:101DC000FF07000002004B00F0B55B0D0C033D4E19
:101DD000640A400F5F1CC90F0443D50037420AD084
:101DE00039481E18FE2E16DDFF200024C0052043B2
:101DF000C9070843F0BD002B06D12C4326D005228D
:101E00009201540AD8B2F1E72543EDD08020C003F7
:101E10000443FF20EAE7002E1BDD9201531E9A4186
:101E2000E4006D0F22432A43530748D00F23134089
:101E3000042B00D004328023DB0413403FD0701CFD
:101E4000FE2ED1D09201540AC0B2CFE70020002468
:101E5000CCE73200173222DB8020000420431E240E
:101E6000A41B1F2C1DDD02225242961B0200F240D1
:101E70001600202C04D0154A94466344984005432C
:101E80002A00531E9A41324300265307CED18024A4
:101E90001300E404012023402242D3D1B0E7002301
:101EA000ADE70B4A94462A00E24014002A0063443E
:101EB0009A409840551EAA4102432243E4E733006A
:101EC0009EE7C046FE07000080FCFFFFA2FCFFFF6C
:101ED00082FCFFFF1C2101231B04984201D3000C4C
:101EE00010391B0A984201D3000A08391B0998428D
:101EF00001D30009043902A2105C40187047C046A3
:101F000004030202010101010000000000000000C2
:101F1000F0B557464E464546DE46E0B50F0019007F
:101F2000002306009846100083B0002F07DA330024
:101F30003C0000275E42A74101235B4298460029EE
:101F400007DA4346DB430C00984603000021584261
:101F5000A14134003D0082468946B9426AD867D023
:101F60004946504600F0BAF883463900300000F088
:101F7000B5F85B461B1A9C46203B9B466BD45846E3
:101F80005146814060460B00514681400A00BB42E9
:101F900000D972E0BB4200D179E034003D005946DF
:101FA000A41A9D41002900DA74E0002100200126D6
:101FB0000090019159468E400196614601268E405F
:101FC0006146009600295FD0D90756080E435F0886
:101FD0006146012200230CE0AF4201D1A6420AD89B
:101FE000A41BBD4124196D410139A4185D4100298C
:101FF00006D0AF42F0D9013924196D410029F8D13A
:10200000009801995B4600196941002B4DDB2E00B9
:102010002C00DE406346DC405B46002B55DB340081
:102020009C4023006446A6403200801A994103E098
:10203000B04295D9002000214346002B04D0030074
:102040000C0000215842A14103B0F0BCBB46B2468F
:10205000A946A046F0BD624648462023514690401E
:102060009B1AD94003000091009960460B435146EA
:1020700081400A00BB4200D88CE70021002000907C
:102080000191614600299FD100980199D4E7B1429E
:10209000F3D882E7614620260127761A0020002126
:1020A000F74000900191019787E7624620239B1A31
:1020B0002A009A40260013006246D6402C001E4398
:1020C0006346DC405B46002BA9DA624620233500DC
:1020D00094409B1ADD4023002B43A3E710B5002951
:1020E00003D1FFF7F7FE203002E00800FFF7F2FE11
:1020F00010BDC04680B582B000AF786039603B68E3
:102100001800BD4602B080BD80B582B000AF7860D7
:102110007B681800BD4602B080BD80B582B000AFBC
:1021200078607B681800BD4602B080BD80B582B083
:1021300000AF78607B6800229A607B681800BD461B
:1021400002B080BD80B582B000AF78607B689B68CC
:10215000002B05D07B689B687868796803229847D4
:102160007B681800BD4602B080BD80B582B000AF6C
:1021700078607B681800FFF7E5FF7B681800BD46B4
:1021800002B080BD80B582B000AF7860034A7B6842
:102190001A607B681800BD4602B080BDA812010815
:1021A00080B582B000AF7860034A7B681A607B68B4
:1021B0001800BD4602B080BDA812010880B582B0EB
:1021C00000AF78607B681800FFF7EAFF7B680421A6
:1021D000180003F0AFF87B681800BD4602B080BD60
:1021E00080B584B000AFF860B9607A60FB68180011
:1021F000FFF7C8FF0B4AFB681A60FB68BA685A60B1
:10220000FB687A689A60FB689A68FB689B681B6841
:102210000C331B6810009847FB681800BD4604B0DB
:1022200080BDC0460814010880B584B000AFF860D6
:10223000B9607A60FB68BA681A60FB687A685A60AD
:10224000FB681800BD4604B080BD80B582B000AF09
:1022500078600BF0EFFD7B681800BD4602B080BDD2
:1022600080B582B000AF78600BF0F0FD7B6818009D
:10227000BD4602B080BD90B585B000AF78603960D2
:102280007B6800221A607B6800225A607B6800220B
:102290009A607B6800221A730C243B191800FFF720
:1022A000D4FF3B681A687B681A603B685A687B6891
:1022B0005A603B689A687B689A607B6800221A7350
:1022C0003B191800FFF7CCFF7B681800BD4605B02E
:1022D00090BD80B582B000AF786039607B681A68C5
:1022E0003B681B68D31A5A425341DBB21800BD4603
:1022F00002B080BD80B582B000AF78607B68180006
:10230000BD4602B080BD80B582B000AF7860396054
:102310007B683A681A607B681800BD4602B080BDD1
:1023200080B584B000AFF860B9607A603B60FB684C
:10233000BA681A60FB687A685A60FB683A689A6003
:10234000FA681823FB181B781374FB680022DA6004
:10235000FB681800BD4604B080BD80B582B000AFF8
:1023600078607B6800221A607B6800225A607B6874
:1023700000229A607B6800221A737B681800BD46B1
:1023800002B080BD80B582B000AF78607B68180075
:1023900010231A0000210DF0A8FA7B681800FFF73F
:1023A000DCFF7B681800BD4602B080BD80B582B0FE
:1023B00000AF78607B68180000F019F8031E01D0A8
:1023C0000CF02AFE7B681800BD4602B080BD80B5C7
:1023D00082B000AF786039607B683A6811001800FD
:1023E000FFF749FF7B681800BD4602B080BDB0B55D
:1023F0008AB000AF78607A6808243B191100180091
:10240000FFF7E5FF18257B191800FFF7BBFF7A19C6
:102410003B191100180000F009F803001A0001230D
:102420005340DBB21800BD460AB0B0BD80B582B0E3
:1024300000AF786039607B683A6811001800FFF7D8
:1024400048FF03001800BD4602B080BD80B582B0D1
:1024500000AF786039607B6862221A707B683A68E6
:102460005A607B681800BD4602B080BD80B584B05C
:1024700000AFF860B9607A603B60FB68BA681A60C8
:10248000FB687A685A60FB683A689A60FB68BA69C8
:10249000DA60FB681800BD4604B080BD80B584B02A
:1024A00000AFF860B9607A603B60FB68BA681A6098
:1024B000FB687A685A60FB683A689A60FB68BA6998
:1024C000DA60FB681800BD4604B080BD80B584B0FA
:1024D00000AFF860B9607A603B60FB68BA681A6068
:1024E000FB680433180005F0E3FFFB687A689A6222
:1024F000FB683A685A64FB681800BD4604B080BDAA
:1025000080B582B000AF78607B681B68022118003C
:1025100005F0B8FFC046BD4602B080BD80B582B0B0
:1025200000AF7860034A7B681A607B681800BD467C
:1025300002B080BD8812010880B582B000AF78601B
:102540007B681800FFF7EAFF7B680421180002F09F
:10255000F1FE7B681800BD4602B080BD80B582B038
:1025600000AF7860034A7B681A607B681800BD463C
:1025700002B080BDE012010880B582B000AF786083
:102580007B681800FFF7EAFF7B680421180002F05F
:10259000D1FE7B681800BD4602B080BD80B582B018
:1025A00000AF7860034A7B681A607B681800BD46FC
:1025B00002B080BDC412010880B582B000AF78605F
:1025C0007B681800FFF7EAFF7B680421180002F01F
:1025D000B1FE7B681800BD4602B080BD80B582B0F8
:1025E00000AF78607B681B68180002F09DF8C04659
:1025F000BD4602B080BD80B582B000AF78607B6818
:102600001B68180002F07CFBC046BD4602B080BDCE
:1026100080B582B000AF78607B681B68180005F059
:10262000C1FBC046BD4602B080BD80B582B000AFE0
:1026300078607B681B68180002F08AFCC046BD46C3
:1026400002B080BDF0B5F34CA54402AFC624E4004F
:102650003B190021180000F069FAE1235A02EE4903
:10266000C526F600B8193B190193002300930023F7
:1026700003F012FF3B191800FFF777FDBA19C424C5
:10268000E4003B1901211800FFF7CEFDE34A3B1996
:102690001100180001F024FCE14D7B191800FFF730
:1026A00029FE7A19C323DB00FB1811001800FFF77D
:1026B0002AFE3A197919BA20C000040038180223FA
:1026C000FFF704FF21007B18180002F063F80223D3
:1026D000FF331A007B190C21180004F041FFD14A86
:1026E000D14B1C00FB181100180005F0D9FDB820D3
:1026F000C0003B18CD4ABA18B920C00006003918EE
:10270000781900F0B5F9300005003B181A6823006D
:10271000FB181100180005F0D3FD280039180D68CA
:10272000C24ABA181668B820C00038180468BE4BF0
:10273000FB181A00C820C0003B181100180000F058
:1027400003FABB49B720C0003818C822D200BB1812
:102750000193009433002A0003F09EFEC820C000BD
:102760003B181800FFF701FDA023DA05B14804006B
:102770003B181021180003F0FBF92200BA18B7200B
:10278000C0003918B423DB00FB181800FFF728FD40
:10279000A94EBA19A24D7B190221180004F040FF7E
:1027A000BB191B88DBB2C322D2001600BC18B422AE
:1027B000D200BA189C497918E2208000381800939A
:1027C0002300FFF7ADFD9D4AD1239B001C00FB18A1
:1027D0001100180003F01EFD2300F918CE239B0002
:1027E0001C00FB180022180003F0C6FB944ABD230E
:1027F0009B00FB181100180003F00CFDBD239B008B
:10280000F918BA239B00FB180022180003F0B4FB50
:102810008C4BBA2189007A1821007918B724A400BA
:10282000381904F029FC884BFA187B19002118008C
:1028300004F0F6FEB6239B00FA187B19012118005C
:1028400004F0EEFE814BCE22D20010009B18DB1963
:102850001B881A007E4B1B18DB191B883919B02402
:10286000A400381904F06AFB7A4A9C239B001C00E0
:10287000FB181100180003F013FA2300FA189A232A
:102880009B00FB1811001800FFF7E0FDC424E400D2
:102890003C19B0229200BA189A239B00F91896238B
:1028A0009B00F8187B1900932300FFF7DFFDBA2186
:1028B000C9007B18CA24E4003A1913603A1992241B
:1028C000A4003B191100180000F066F99624A4003A
:1028D0003B19614C3A1913603A198E24A4003B1934
:1028E0001100180000F07DF9E22080003B18CB2099
:1028F000C0003A1813603A188A2080003B18110073
:10290000180000F093F9554A1400BB180021180074
:1029100000F00CF9E1235A02514988239B00F81872
:102920003B19019300230093002303F0B5FD3B19ED
:102930001800FFF71AFC3300FC18C526F600BA1978
:1029400088239B00F918102038187B190093230066
:10295000FFF7A4FD10257B19424D7A1913607A19EF
:102960003B001100180000F086F99225AD007B199C
:1029700018000CF0C7F98A24A4003B1918000CF0C9
:10298000C1F93B0018000CF0BDF93B001800FFF73F
:102990000DFD882080003B18180000F0BFFE3B1999
:1029A0001800FFF703FD8E24A4003B191800FFF761
:1029B000FDFC7B191800FFF7F9FC9C239B00FB181A
:1029C000180000F03BFFBA25AD007B19180000F09D
:1029D00011FFCE2189007B18180000F00BFFB423F3
:1029E000DB00FB18180000F0E1FE124ABB181800CB
:1029F00000F0B8FEB720C0003B18180000F08EFEB3
:102A0000BB19180000F08AFEC046BD46164B9D4417
:102A10002CE0C04684F9FFFF004800406C1001081C
:102A20001C06000000040040CC050000C4050000A6
:102A300000440040AC0500009E050000002C014051
:102A4000002000409A99993EDA0200006AFCFFFFDC
:102A500068FCFFFF00540040540600005C060000C4
:102A6000004C00406C06000074060000F0BDC0463B
:102A700090B589B000AFF860B9607A603B6012240D
:102A80003A19FB680321180004F0CAFD3B191B88A2
:102A90001A00642353431A00BB681A6096239B01F3
:102AA0007B61E1235B02BB611823FA18BB6811004C
:102AB000180000F005F902001423FB18110018009B
:102AC00000F010F903001A68BB681A6010243A1964
:102AD000FB680421180004F0A3FD7B6800221A6043
:102AE0003B191B881B0A9BB2022B02D17B68012277
:102AF0001A601023FB181A881F217B181A703B6874
:102B000000221A607B181B78012B03D13B6802223C
:102B10001A6007E01F23FB181B78022B02D13B68C9
:102B200001221A60C046BD4609B090BD80B582B092
:102B300000AF786039607B681800FFF7F7FA7B68B0
:102B40001800BD4602B080BD90B583B000AF78607C
:102B500039607B681800FFF7E9FA3B00180000F0C5
:102B6000D3F8031E0FD07C683B00180000F0D5F8A6
:102B700003001900200000F0D9F87B68044ADA60ED
:102B80007B68044A9A607B681800BD4603B090BD1C
:102B9000532D0008732D000890B585B000AF786004
:102BA00039607B681800FFF7EDFB0023FB603B6892
:102BB000180000F001F9020008243B191100180068
:102BC00000F003F939197B68002218000CF066F850
:102BD0003B19180000F015F97B681800BD4605B0D8
:102BE00090BD90B585B000AF786039607B68180003
:102BF000FFF7C8FB0023FB603B68180000F026F9D4
:102C0000020008243B191100180000F028F93919B6
:102C10007B68002218000CF041F83B19180000F006
:102C2000F0F87B681800BD4605B090BD90B585B042
:102C300000AF786039607B681800FFF7A3FB0023C2
:102C4000FB603B68180000F026F9020008243B19DD
:102C50001100180000F028F939197B6800221800CB
:102C60000CF01CF83B19180000F0CBF87B6818003A
:102C7000BD4605B090BD90B585B000AF78603960B5
:102C80007B681800FFF77EFB0023FB603B681800A1
:102C900000F026F9020008243B191100180000F08A
:102CA00028F939197B68002218000BF0F7FF3B194F
:102CB000180000F0A6F87B681800BD4605B090BD6E
:102CC00080B582B000AF786039603B681A687B6875
:102CD0001B689A4201D23B6800E07B681800BD4641
:102CE00002B080BD80B582B000AF786039607B688B
:102CF0001A683B681B689A4201D23B6800E07B6817
:102D00001800BD4602B080BD80B582B000AF7860CB
:102D100001231800BD4602B080BD80B582B000AF6F
:102D200078607B681800BD4602B080BD90B583B066
:102D300000AF786039603B681800FFF7EEFF0100D4
:102D40007B68221C180000F0F0F8C046BD4603B0B6
:102D500090BD80B582B000AF78607B68180000F04D
:102D600000F90300180000F010F9C046BD4602B09B
:102D700080BD90B585B000AFF860B960FB1D1A70DA
:102D8000FB1D1B78012B0BD1FB68180000F00EF91E
:102D90000400BB68180000F0E4F80300236006E0BC
:102DA000FB1D1A78B968FB68180000F00CF90023C5
:102DB0001800BD4605B090BD80B582B000AF786008
:102DC0007B681800BD4602B080BDB0B582B000AFD0
:102DD000786039603B681800FFF7EEFF05000820B7
:102DE00002F08FFA03001C002900200000F03CF9DB
:102DF0007B682100180000F065F97868BD4602B0D4
:102E0000B0BD90B585B000AF78607B68180000F069
:102E100069F90300FB60FB681B68002B0ED07B6820
:102E2000180000F06CF90400FB68180000F074F959
:102E300003001B681900200000F077F9FB680022EE
:102E40001A607B681800BD4605B090BD80B582B0A1
:102E500000AF78607B681800BD4602B080BDB0B599
:102E600082B000AF786039603B681800FFF7EEFF72
:102E70000500082002F045FA03001C00290020008C
:102E800000F078F97B682100180000F01BF97868E1
:102E9000BD4602B0B0BD80B582B000AF78607B683F
:102EA0001800BD4602B080BDB0B582B000AF7860FA
:102EB00039603B681800FFF7EEFF0500082002F0BC
:102EC00020FA03001C002900200000F085F97B682F
:102ED0002100180000F0F6F87868BD4602B0B0BDD9
:102EE00080B582B000AF78607B681800BD4602B044
:102EF00080BDB0B582B000AF786039603B68180023
:102F0000FFF7EEFF0500082002F0FBF903001C00AC
:102F10002900200000F092F97B682100180000F0E1
:102F2000D1F87868BD4602B0B0BD90B585B000AFAD
:102F3000F860B9603B1D1A70BB681800FFF7EDFE22
:102F40000400FB681800FFF7DFF8030019000420F5
:102F5000FFF7D0F8030022681A60C046BD4605B0EE
:102F600090BD80B584B000AF78607B68180000F039
:102F700083F90300FB60FB68180000F08AF9030086
:102F8000C0461800BD4604B080BD90B583B000AF08
:102F900078607B68180000F085F903001900201C98
:102FA00000F089F9C046BD4603B090BD80B582B03F
:102FB00000AF78607B681800FFF7A6F803001800E0
:102FC000BD4602B080BDB0B584B000AFF860B96056
:102FD000FB1D1A70FB1D1B78032B18D01DDC012B69
:102FE00002D0022B0CD018E0FB681800FFF7DEFFC0
:102FF0000400BB681800FFF7B4FF030023600CE077
:10300000B968FB682A1C180000F067F905E0FB6846
:10301000211C180000F07DF9C04600231800BD46B1
:1030200004B0B0BD80B582B000AF7860034A7B6861
:103030001A607B681800BD4602B080BD8416010886
:1030400090B583B000AF786039607C683B68180049
:10305000FFF7B2FE03001900200000F068F97B685A
:103060001800BD4603B090BD90B583B000AF786046
:1030700039607B681800FFF7D5FF094A7B681A6042
:103080007B681C1D3B681800FFF796FE03001900C3
:103090002000FFF7D5FF7B681800BD4603B090BD48
:1030A0007412010880B582B000AF786039607B6827
:1030B0003A681100180000F04EF97B681800BD4610
:1030C00002B080BD80B582B000AF786039607B68A7
:1030D0003A6811001800FFF7E5FF7B681800BD464D
:1030E00002B080BD80B582B000AF78607B68180008
:1030F00000F046F903001800BD4602B080BD80B55F
:1031000082B000AF78607B68180000F046F90300D9
:103110001800BD4602B080BD80B582B000AF7860B7
:103120007B681800BD4602B080BD80B582B000AF9C
:10313000786039603B68002B04D01A68043212684A
:1031400018009047C046BD4602B080BD90B583B020
:1031500000AF786039607C683B681800FFF776FE46
:1031600003001900200000F032F97B681800BD460A
:1031700003B090BD90B583B000AF786039607B68D4
:103180001800FFF74FFF094A7B681A607B681C1D17
:103190003B681800FFF75AFE030019002000FFF7F4
:1031A000D5FF7B681800BD4603B090BD60120108D2
:1031B00090B583B000AF786039607C683B681800D8
:1031C000FFF769FE03001900200000F014F97B6886
:1031D0001800BD4603B090BD90B583B000AF7860D5
:1031E00039607B681800FFF71DFF094A7B681A6089
:1031F0007B681C1D3B681800FFF74DFE030019009B
:103200002000FFF7D5FF7B681800BD4603B090BDD6
:103210004C12010890B583B000AF786039607C68CB
:103220003B681800FFF75CFE03001900200000F067
:10323000F6F87B681800BD4603B090BD90B583B02A
:1032400000AF786039607B681800FFF7EBFE094A31
:103250007B681A607B681C1D3B681800FFF740FE06
:10326000030019002000FFF7D5FF7B681800BD465A
:1032700003B090BD3812010880B582B000AF78600D
:103280007B681800FEF749FF03001800BD4602B036
:1032900080BD80B582B000AF78607B681800BD4605
:1032A00002B080BD80B582B000AF78607B68180046
:1032B000BD4602B080BD80B582B000AF3B1D187026
:1032C00039603B681800FFF7EDFF03001800FFF7B7
:1032D00017F9C046BD4602B080BD90B585B000AFBD
:1032E000F860B9603B1D1A70BB681800FFF7C4FF97
:1032F0000400FB681800FEF707FF03001900042014
:10330000FEF7F8FE030022681A60C046BD4605B00D
:1033100090BD80B582B000AF78603B0019707B68CB
:10332000180000F090F8C046BD4602B080BD90B5D0
:1033300083B000AF786039607C683B681800FFF7A5
:103340003BFD03001900200000F08AF87B6818009C
:10335000BD4603B090BD80B582B000AF78603960E3
:103360007B68180000F08EF87B681800FFF7BAFE43
:1033700003003A681A607B681800BD4602B080BD41
:1033800080B582B000AF78607B68180000F087F8E5
:1033900003001800BD4602B080BD80B582B000AF0A
:1033A00078607B68180000F087F803001800BD46BD
:1033B00002B080BD80B582B000AF78607B68180035
:1033C00000F087F803001800BD4602B080BD90B53C
:1033D00083B000AF786039607C683B681800FFF705
:1033E00035FD03001900200000F089F87B68180003
:1033F000BD4603B090BD90B583B000AF7860396032
:103400007C683B681800FFF746FD030019002000A8
:1034100000F087F87B681800BD4603B090BD90B5FA
:1034200083B000AF786039607C683B681800FFF7B4
:1034300057FD03001900200000F085F87B68180094
:10344000BD4603B090BD80B582B000AF78607B68A8
:103450001800FEF759FE03001800BD4602B080BDFB
:1034600080B582B000AF786039603B681800FFF724
:10347000A3FC02007B6812681A607B681800BD46D6
:1034800002B080BD80B582B000AF78607B68180064
:1034900000F06BF87B681800BD4602B080BD80B5B7
:1034A00082B000AF78607B681800FFF783FF0300ED
:1034B0001800BD4602B080BD80B582B000AF786014
:1034C0007B68180000F062F803001800BD4602B0E7
:1034D00080BD80B582B000AF78607B681800BD46C3
:1034E00002B080BD80B582B000AF78607B68180004
:1034F00000F059F803001800BD4602B080BD80B549
:1035000082B000AF786039603B681800FFF79EFC1E
:1035100002007B6812681A607B681800BD4602B022
:1035200080BD80B582B000AF786039603B6818001C
:10353000FFF7B1FC02007B6812681A607B68180014
:10354000BD4602B080BD80B582B000AF7860396002
:103550003B681800FFF7C4FC02007B6812681A6021
:103560007B681800BD4602B080BD80B582B000AF58
:1035700078607B68180000F01FF87B68180000F086
:1035800028F87B681800BD4602B080BD80B582B0C7
:1035900000AF78607B681800FFF7A4FF03001800F5
:1035A000BD4602B080BD80B582B000AF78607B6858
:1035B0001800BD4602B080BD80B582B000AF786013
:1035C0007B68180000F011F87B681800BD4602B057
:1035D00080BD80B582B000AF78607B6800221A6041
:1035E0007B681800BD4602B080BD80B582B000AFD8
:1035F00078607B681800BD4602B080BD80B582B09F
:1036000000AF7860054A7B681A607B6818000BF091
:1036100037FB7B681800BD4602B080BD3812010838
:1036200080B582B000AF78607B681800FFF7E6FFD6
:103630007B680821180001F07DFE7B681800BD46FC
:1036400002B080BD80B582B000AF7860054A7B686B
:103650001A607B6818000BF013FB7B681800BD46EE
:1036600002B080BD4C12010880B582B000AF786016
:103670007B681800FFF7E6FF7B680821180001F05F
:1036800059FE7B681800BD4602B080BD80B582B08F
:1036900000AF7860054A7B681A607B6818000BF001
:1036A000EFFA7B681800BD4602B080BD60120108C9
:1036B00080B582B000AF78607B681800FFF7E6FF46
:1036C0007B680821180001F035FE7B681800BD46B4
:1036D00002B080BD80B582B000AF7860054A7B68DB
:1036E0001A607B6818000BF0CBFA7B681800BD46A7
:1036F00002B080BD7412010880B582B000AF78605E
:103700007B681800FFF7E6FF7B680821180001F0CE
:1037100011FE7B681800BD4602B080BD80B582B046
:1037200000AF7860054A7B681A607B681800FEF776
:1037300037FD7B681800BD4602B080BDEC13010860
:1037400080B582B000AF78607B681800FFF7E6FFB5
:103750007B680821180001F0EDFD7B681800BD466C
:1037600002B080BD80B582B000AF7860054A7B684A
:103770001A607B681800FEF7D1FE7B681800BD4612
:1037800002B080BD9413010880B582B000AF7860AC
:103790007B681800FFF7E6FF7B680C21180001F03A
:1037A000C9FD7B681800BD4602B080BD80B582B0FF
:1037B00000AF7860054A7B681A607B681800FEF7E6
:1037C000EFFC7B681800BD4602B080BD08140108FC
:1037D00080B582B000AF78607B681800FFF7E6FF25
:1037E0007B680C21180001F0A5FD7B681800BD4620
:1037F00002B080BD80B582B000AF7860054A7B68BA
:103800001A607B681800FEF7A9FE7B681800BD46A9
:1038100002B080BDD013010880B582B000AF7860DF
:103820007B681800FFF7E6FF7B680C21180001F0A9
:1038300081FD7B681800BD4602B080BD80B582B0B6
:1038400000AF7860054A7B681A607B681800FEF755
:10385000A5FE7B681800BD4602B080BDB413010808
:1038600080B582B000AF78607B681800FFF7E6FF94
:103870007B685021180001F05DFD7B681800BD4693
:1038800002B080BD80B582B000AF78607B68043341
:10389000180000F02BF8C046BD4602B080BD80B5D0
:1038A00082B000AF78607B680433180000F02BF81A
:1038B000C046BD4602B080BD80B582B000AF786022
:1038C0007B680433180000F02BF8C046BD4602B0F8
:1038D00080BD80B582B000AF78607B68043318008B
:1038E00000F02BF8C046BD4602B080BD80B582B066
:1038F00000AF78607B68111C180000F02BF8C04600
:10390000BD4602B080BD80B582B000AF78607B68F4
:10391000111C180000F034F8C046BD4602B080BD4E
:1039200080B582B000AF78607B68111C180000F091
:103930003DF8C046BD4602B080BD80B582B000AF44
:1039400078607B68111C180000F046F8C046BD4640
:1039500002B080BD80B582B000AF78603B001970C6
:103960007B68180000F04EF80300180000F053F8D0
:103970000300180000F060F8C046BD4602B080BDEC
:1039800080B582B000AF78603B0019707B6818008A
:1039900000F063F80300180000F068F80300180056
:1039A00000F075F8C046BD4602B080BD80B582B05B
:1039B00000AF78603B0019707B68180000F078F861
:1039C0000300180000F07DF80300180000F08AF8EA
:1039D000C046BD4602B080BD80B582B000AF786001
:1039E0003B0019707B68180000F08DF80300180088
:1039F00000F092F80300180000F09FF8C046BD46A2
:103A000002B080BD80B582B000AF78607B681800DE
:103A1000BD4602B080BD80B582B000AF78607B68E3
:103A2000180000F09BF80300180000F0A4F8030051
:103A30001800BD4602B080BD90B583B000AF78607D
:103A40007B681800FFF74CFA03001900201C00F0F7
:103A50009BF8C046BD4603B090BD80B582B000AFB4
:103A600078607B681800BD4602B080BD80B582B02A
:103A700000AF78607B68180000F098F80300180029
:103A800000F0A1F803001800BD4602B080BD90B55B
:103A900083B000AF78607B681800FFF7FCF9030083
:103AA0001900201C00F098F8C046BD4603B090BD38
:103AB00080B582B000AF78607B681800BD4602B068
:103AC00080BD80B582B000AF78607B68180000F0E0
:103AD00095F80300180000F09EF803001800BD469A
:103AE00002B080BD90B583B000AF78607B681800ED
:103AF000FFF7ACF903001900201C00F095F8C04650
:103B0000BD4603B090BD80B582B000AF78607B68E1
:103B10001800BD4602B080BD80B582B000AF7860AD
:103B20007B68180000F092F80300180000F09BF882
:103B300003001800BD4602B080BD90B583B000AF51
:103B400078607B681800FFF737F903001900201C24
:103B500000F092F8C046BD4603B090BD80B582B07B
:103B600000AF78607B68180000F098F80300180038
:103B7000BD4602B080BD80B582B000AF78607B6882
:103B80001800BD4602B080BD80B582B000AF3B1DBD
:103B9000187039603B681800FFF7A2F9030018009D
:103BA000FEF743FDC046BD4602B080BD80B582B081
:103BB00000AF78607B68180000F07DF80300180003
:103BC000BD4602B080BD80B582B000AF78607B6832
:103BD0001800BD4602B080BD80B582B000AF3B1D6D
:103BE000187039603B681800FFF755F9030018009A
:103BF000FEF70EFDC046BD4602B080BD80B582B066
:103C000000AF78607B68180000F062F803001800CD
:103C1000BD4602B080BD80B582B000AF78607B68E1
:103C20001800BD4602B080BD80B582B000AF3B1D1C
:103C3000187039603B681800FFF708F90300180096
:103C4000FEF7D9FCC046BD4602B080BD80B582B04B
:103C500000AF78607B68180000F047F80300180098
:103C6000BD4602B080BD80B582B000AF78607B6891
:103C70001800BD4602B080BD80B582B000AF3B1DCC
:103C8000187039603B681800FFF796F803001800B9
:103C9000FEF7A4FCC046BD4602B080BD80B582B030
:103CA00000AF78607B68180000F02CF80300180063
:103CB000BD4602B080BD80B582B000AF78607B6841
:103CC000180000F02CF803001800BD4602B080BDBB
:103CD00080B582B000AF78607B68180000F02CF8E7
:103CE00003001800BD4602B080BD80B582B000AFB1
:103CF00078607B68180000F02CF803001800BD46BF
:103D000002B080BD80B582B000AF78607B681800DB
:103D100000F02CF803001800BD4602B080BD80B54D
:103D200082B000AF78607B68180000F028F80300CC
:103D30001800BD4602B080BD80B582B000AF78608B
:103D40007B68180000F024F803001800BD4602B09C
:103D500080BD80B582B000AF78607B68180000F04D
:103D600020F803001800BD4602B080BD80B582B0C7
:103D700000AF78607B681800BD4602B080BD80B59A
:103D800082B000AF78607B681800BD4602B080BD8D
:103D900080B582B000AF78607B681800BD4602B085
:103DA00080BD80B582B000AF78607B681800BD46EA
:103DB00002B080BD80B582B000AF7860012008F00D
:103DC00026FD02007B681A60C046BD4602B080BD79
:103DD00080B582B000AF78607B681B68180008F07F
:103DE0000FFF00231800BD4602B080BD80B582B031
:103DF00000AF78607B681B680122524211001800F6
:103E000008F0F2FD0300013B5A1E9341DBB218009B
:103E1000BD4602B080BD80B582B000AF78607B68DF
:103E2000186800230022002108F061FC0300013B18
:103E30005A1E9341DBB21800BD4602B080BD80B56A
:103E400082B000AF78607B681800FFF7B3FF7B6833
:103E50001800BD4602B080BD80B582B000AF78606A
:103E60007B681800FFF7B4FF7B681800BD4602B0FE
:103E700080BD80B584B000AF78607B681800FFF724
:103E8000B5FF0300FB60FB68002B03D0FB68180044
:103E90000BF061FAC046BD4604B080BD80B582B06B
:103EA00000AF78607B681800FFF7B5FFC046BD46DD
:103EB00002B080BD80B582B000AF78607B6818002A
:103EC000FFF7BDFF7B681800BD4602B080BD80B51E
:103ED00082B000AF786064231800BD4602B080BD98
:103EE000B0B584B000AF78603960234A0823FB186E
:103EF0001100180000F096F87B681B68002B03D0B7
:103F00007B681B68022B03D13B6818000CF0BCF8DF
:103F10007B681B68012B03D07B681B68022B21D1B7
:103F2000164B180000F09EF80400144B1800FFF721
:103F3000CEFF01003B681A0020000CF07DF9030061
:103F4000FB607B685D687B685B681B6808331C6886
:103F50000A4B180000F086F80100FB689AB214239F
:103F60002800A0470823FB18180000F06DF8C04691
:103F7000BD4604B0B0BDC046CC0500206805002099
:103F8000B0B586B000AFF860B9607A60234A1023FC
:103F9000FB181100180000F045F8FB681B68002BA7
:103FA00003D0FB681B68022B05D17A68BB6811003F
:103FB00018000CF069F8FB681B68012B03D0FB6844
:103FC0001B68022B21D1164B180000F04BF804009F
:103FD000134B1800FFF77BFF01007B68BA682000D5
:103FE0000CF02AF903007B61FB685D68FB685B6885
:103FF0001B6808331C680A4B180000F033F80100F6
:104000007B699AB214232800A0471023FB181800DC
:1040100000F01AF8C046BD4606B0B0BDCC05002081
:104020006805002080B582B000AF786039607B6899
:104030003A681A607B681B681800FFF71AFF7B68F4
:104040001800BD4602B080BD80B582B000AF786078
:104050007B681B681800FFF721FF7B681800BD46CE
:1040600002B080BD80B582B000AF78607B68180078
:1040700000F005F803001800BD4602B080BD80B511
:1040800082B000AF78607B68180000F005F803008C
:104090001800BD4602B080BD80B582B000AF786028
:1040A0007B681800BD4602B080BD80B582B000AF0D
:1040B00078607B681800FFF7CFFE7B681800BD466C
:1040C00002B080BD80B582B000AF786039607B6897
:1040D000012B07D13B680B4A934203D10A4B1800CE
:1040E000FFF7E8FE7B68002B07D13B68054A934247
:1040F00003D1054B1800FFF7D8FFC046BD4602B0FC
:1041000080BDC046FFFF0000CC05002080B500AF99
:10411000034B19000120FFF7D5FFBD4680BDC04607
:10412000FFFF000080B500AF034B19000020FFF730
:10413000C9FFBD4680BDC046FFFF000080B582B00C
:1041400000AF786039603B681A685B6879680A601C
:104150004B607B681800BD4602B080BD80B500AFE3
:104160000022002310001900BD4680BD80B582B03A
:1041700000AF78607B681A685B6810001900BD4664
:1041800002B080BD80B582B000AF786039603B6816
:104190001A685B6879680A604B607B681800BD46E6
:1041A00002B080BD80B582B000AF786039603968F8
:1041B00009680A0000210B0079680A604B607B687F
:1041C0001800BD4602B080BD80B582B000AF7860F7
:1041D00039607A683B681100180000F0ABF8030002
:1041E0001A0001235340DBB21800BD4602B080BD67
:1041F00080B584B000AF7860FFF7B0FF02000B001D
:10420000BA60FB600823FA187B681100180000F000
:10421000BBF87868BD4604B080BD80B582B000AF01
:10422000786039607B683A681100180000F0BCF8CB
:10423000C0467868BD4602B080BD80B582B000AF90
:10424000786039607B683A681100180000F0C9F89E
:10425000C0467868BD4602B080BD80B582B000AF70
:1042600078607B681A685B6810001900BD4602B070
:1042700080BDF0B58BB000AFF860B9607A60BB6804
:104280001A685B68BA61FB611823FB181800FFF716
:10429000E4FF04000D007A682026BB191100180005
:1042A00000F0E1F8BB191800FFF7D7FF02000B0080
:1042B000A41A9D4122002B003A617B611023FA1859
:1042C000FB681100180000F05FF8F868BD460BB0FD
:1042D000F0BDB0B58AB000AF786018243B19180063
:1042E000FFF786FF3A197B6811001800FFF76CFF93
:1042F000031E1BD110243B197A6811001800FFF728
:104300008CFF20257B193A1979681800FFF7B1FF57
:104310000823FB187A1911001800FFF78EFFBA68FE
:10432000FB68386979690AF017FD00E0C046BD46B0
:104330000AB0B0BDB0B586B000AF786039607B68B8
:104340001A685B68BA60FB600823FB181800FFF767
:1043500084FF04000D003B681A685B683A617B616A
:104360001023FB181800FFF778FF02000B00012153
:10437000AB4204DC01D1A24201D80023191CCBB20C
:104380001800BD4606B0B0BD80B582B000AF786001
:1043900039603B681A685B6879680A604B607B68C3
:1043A0001800BD4602B080BD80B584B000AF786013
:1043B00039603B681800FFF750FFFA229200002393
:1043C000FCF78CF802000B00BA60FB600823FA18B7
:1043D0007B6811001800FFF7D5FE7868BD4604B071
:1043E00080BDF0B58BB000AFF861B961BB69180052
:1043F000FFF733FF3860796002000B00D60E5901D9
:10440000796179693143796153013B613A697B692B
:1044100038687968121A8B41D60D5902F960F9682B
:104420003143F9605302BB60BA68FB683868796849
:1044300012184B41960E9D0135439401A41A9D41DB
:1044400022002B0012184B413A627B62082318228B
:104450009B18DA19FB6911001800FFF76FFEF86965
:10446000BD460BB0F0BD90B585B000AF7860396047
:1044700008243B193A681100180000F00EF83B19A7
:104480001800FFF7EAFE02000B0079680A604B6033
:104490007B681800BD4605B090BD80B582B000AF06
:1044A000786039607B683A681100180000F005F800
:1044B000C0467868BD4602B080BD80B584B000AF0C
:1044C000786039603B681800FFF750FEFA229200CE
:1044D0000023FCF727F802000B00BA60FB600823FA
:1044E000FA187B6811001800FFF74EFF7868BD4688
:1044F00004B080BD80B582B000AF78607B681800E2
:10450000BD4602B080BD80B582B000AF78600C239C
:104510001800BD4602B080BD90B583B000AF786092
:1045200039607B68180000F01FF804007B681800F1
:10453000FFF7E9FF01003B681A00200000F066F871
:10454000C046BD4603B090BD80B582B000AF786074
:1045500039607B683A681100180000F073F80300B6
:104560001800BD4602B080BD80B582B000AF786053
:104570007B68180000F073F803001800BD4602B015
:1045800080BD80B582B000AF78607B68180000F015
:1045900066F8030030331800BD4602B080BD80B518
:1045A00084B000AFF860B9603A607B60FA68BB68BD
:1045B0009A4212D0FB681B68181CFDF7BBFB020077
:1045C0000B0038687968FCF75DFD02000B003A606B
:1045D0007B60FB680433FB60E8E73A687B681000A7
:1045E0001900BD4604B080BD80B582B000AF7860D0
:1045F0003960396809680A00C9170B0079680A60D0
:104600004B607B681800BD4602B080BDF0B585B038
:1046100000AFF860B9607A60FC68BB681800FFF70B
:1046200069FF05000C23FB18180000F025F87A68D4
:10463000331C2900200000F028F803001800BD46B4
:1046400005B0F0BD80B582B000AF786039603B68DE
:104650009B007A68D3181800BD4602B080BD80B5B3
:1046600082B000AF78607B68180000F02CF803007F
:104670001800BD4602B080BD80B582B000AF786042
:10468000C046181CBD4602B080BD80B584B000AFE6
:10469000F860B9607A603A001370BB68002B01D1F2
:1046A000FB680CE0BB689B00FA68D1187A68FB686D
:1046B000180000F011F8BB689B00FA68D3181800C6
:1046C000BD4604B080BD80B582B000AF78607B6825
:1046D0001800BD4602B080BD80B584B000AFF86060
:1046E000B9607A607A68B968FB68180000F004F86D
:1046F000C046BD4604B080BD80B586B000AFF8604E
:10470000B9607A607B681B687B61FA68BB689A4213
:1047100006D0FB687A691A60FB680433FB60F4E733
:10472000C046BD4606B080BD90B585B000AF78608C
:104730007B68180000F0D0F8031E18D07B68181DA5
:104740007B682C331822190003F0DAFE031E07D011
:104750007B689B6A0C4A11001800FFF7C1FB06E05A
:104760007B689B6A094A11001800FFF7B9FB084AE9
:1047700008243B191100180000F0A6F93B19180095
:1047800000F02CFAD4E7C0468C100108A8100108EC
:10479000F4120108B0B584B000AF78607B68181DD2
:1047A0007B682C330F257C191822190003F0E0FEDA
:1047B000030023707B68D96A7B685A6C0E203B1813
:1047C0008A1A51424A411A707B191B78002B03D078
:1047D0003B181B78002B03D17B68180000F04EF8C3
:1047E0007B6818687B685B8E1A00082102F0B8FEAF
:1047F0007B6818687B681B8E1A00092102F0B0FEE6
:104800007B6818687B689B8E1A00002102F042FFCB
:104810007B6818687B68DB8E1A00012102F03AFF82
:104820007B6818687B681B8F1A00022102F032FF38
:104830007B6818687B685B8F1A00032102F02AFFEF
:104840007B6818687B689B8F1A00042102F022FFA6
:104850007B6818687B6840229B5E9BB21A0005212A
:1048600002F018FF7B6818687B68DB8F1A0006214E
:1048700002F010FFC046BD4604B0B0BD80B582B0A6
:1048800000AF78607B68C82292009A867B68104AE5
:10489000DA867B680F4A1A867B680E4A5A867B68DE
:1048A0009022D2005A877B68802252009A877B68C8
:1048B00033221A877B6840228C21490099527B68F9
:1048C00096225200DA87C046BD4602B080BDC0467F
:1048D000DC050000A08CFFFF90B585B000AF7860CC
:1048E0000F217B1800221A707B68DA6A7B685B6C88
:1048F0009A4206D07B685A6C7B68DA627B18012288
:104900001A707B681B680C243A190821180002F001
:10491000EDFD031E0DD07B685A8E3B191B889A4211
:1049200007D03B191A887B685A860F23FB1801228F
:104930001A707B681B680C243A190921180002F0D0
:10494000D5FD031E0DD07B681A8E3B191B889A4239
:1049500007D03B191A887B681A860F23FB1801229F
:104960001A707B681B680C243A190021180002F0A9
:1049700057FE031E0DD07B689A8E3B191B889A4206
:1049800007D03B191A887B689A860F23FB180122EF
:104990001A707B681B680C243A190121180002F078
:1049A0003FFE031E0DD07B68DA8E3B191B889A42AE
:1049B00007D03B191A887B68DA860F23FB1801227F
:1049C0001A707B681B680C243A190221180002F047
:1049D00027FE031E0DD07B681A8F3B191B889A4255
:1049E00007D03B191A887B681A870F23FB1801220E
:1049F0001A707B681B680C243A190321180002F016
:104A00000FFE031E0DD07B685A8F3B191B889A42FC
:104A100007D03B191A887B685A870F23FB1801229D
:104A20001A707B681B680C243A190421180002F0E4
:104A3000F7FD031E0DD07B689A8F3B191B889A42A5
:104A400007D03B191A887B689A870F23FB1801222D
:104A50001A707B681B680C243A190521180002F0B3
:104A6000DFFD031E11D07B6840229B5E1A003B19BC
:104A70001B889A4209D03B191B8819B27B684022D7
:104A800099520F23FB1801221A707B681B680C24B3
:104A90003A190621180002F0C3FD031E0DD07B68F1
:104AA000DA8F3B191B889A4207D03B191A887B681A
:104AB000DA870F23FB1801221A700F23FB181B78CB
:104AC0001800BD4605B090BD80B582B000AF7860DB
:104AD0003960396809680A0000210B0079680A60AA
:104AE0004B607B681800BD4602B080BD80B582B0C7
:104AF00000AF786039607A683B681100180000F0F8
:104B00009EF803001A0001235340DBB21800BD4693
:104B100002B080BD80B584B000AF7860FFF71EFBA7
:104B200002000B00BA60FB600823FA187B681100D2
:104B30001800FFF727FB7868BD4604B080BD80B53C
:104B400082B000AF786039607B683A681100180065
:104B500000F09FF8C0467868BD4602B080BD80B5C1
:104B600082B000AF786039607B683A681100180045
:104B700000F0A8F8C0467868BD4602B080BDB0B568
:104B80008AB000AFF860B9607A60BB681A685B6889
:104B9000BA61FB611823FB181800FFF7E7FA04005D
:104BA0000D007B681A685B683A627B622023FB1801
:104BB0001800FFF7DBFA02000B00A41A9D41220047
:104BC0002B003A617B611023FA18FB681100180072
:104BD000FFF7D8FAF868BD460AB0B0BDB0B58AB0E4
:104BE00000AF786018243B191800FFF793FF3A19BB
:104BF0007B6811001800FFF779FF031E1BD11024FA
:104C00003B197A6811001800FFF799FF20257B19DE
:104C10003A1979681800FFF7B2FF0823FB187A19D0
:104C200011001800FFF79BFFBA68FB6838697969C3
:104C30000AF092F800E0C046BD460AB0B0BDB0B57B
:104C400086B000AF786039607B681A685B68BA60CC
:104C5000FB600823FB181800FFF788FA04000D001A
:104C60003B681A685B683A617B611023FB18180087
:104C7000FFF77CFA02000B000121AB4204DC01D1FA
:104C8000A24201D80023191CCBB21800BD4606B0C1
:104C9000B0BD80B584B000AF786039603B68180063
:104CA000FFF764FA02000B00BA60FB600823FA18F1
:104CB0007B6811001800FFF765FA7868BD4604B0FC
:104CC00080BD000080B584B000AF786039603B687B
:104CD0001800FFF74BFA094A0023FBF723FC0200F8
:104CE0000B00BA60FB600823FA187B6811001800FB
:104CF000FFF724FA7868BD4604B080BD00CA9A3B2D
:104D0000F0B597B000AF78607B681B680021180091
:104D100003F09CFE42257B199622D2001A800023C4
:104D20007B6508243B19180030231A0000210AF083
:104D3000DCFD21007B187E4A1A607D4B7B64442396
:104D4000FA187B1811001800FFF7E6FB7B685A6819
:104D50007B191B881900100002F010F9754A4824CD
:104D60003B1911001800FFF71DFA3B191800FFF757
:104D7000B0FA7B6818683823FB183C22BA18422422
:104D8000391903F0C5FE03005A1E9341DBB2002B14
:104D900000D1BFE03B191D887B6D5A1C7A6508263F
:104DA000BA1919001000FFF7CFFB04002800FCF728
:104DB00027F9031C2360BB191800FFF7D5FB04007B
:104DC000BB191800FFF7DDFB0100002200232000C3
:104DD000FFF7E5FB04000D00BB191800FFF793FB7C
:104DE00003001800FCF780FF02000B0020002900E0
:104DF000FCF784FC02000B0010001900FCF7E2FF36
:104E0000031C3B65BB191800FFF77DFB01007A6DA1
:104E100000238A425B41DBB2002B01D000237B657B
:104E20007B68D86842257B191B881A00002102F094
:104E300097FB7B68DC68386DFBF7A2FB03009BB235
:104E40001A000121200002F08BFB7B68DC68FB6B01
:104E50003949181CFBF792FD031C181CFBF790FB4B
:104E600003009BB21A000221200002F079FB7B684C
:104E7000DC68BB6B3049181CFBF780FD031C181C59
:104E8000FBF77EFB03009BB21A000321200002F017
:104E900067FB7B6898687B191B881A00274B1900F1
:104EA000FFF76EF87B689C68386DFBF769FB0200C2
:104EB000234B19002000FFF763F87B689C68FB6BAD
:104EC0001D49181CFBF75AFD031C181CFBF758FB67
:104ED00002001C4B19002000FFF752F87B689C6809
:104EE000BB6B1549181CFBF749FD031C181CFBF78D
:104EF00047FB0200144B19002000FFF741F87B68C4
:104F00005C68386DFBF73CFB03001900200002F0E1
:104F100035F823E77B689B680C4A11001800FEF700
:104F2000DFFF7B685B68180002F098F816E7C04660
:104F30000000C843F81201080000C842CC10010864
:104F4000D8100108EC100108001101081011010827
:104F5000B0B58EB000AF7860A023DA050C243B1901
:104F60004021180000F004FE3B19180000F069FE13
:104F700064237B622423FA1818257B19110018007A
:104F8000FFF732FB7B191800FFF7A3F93B19180054
:104F900000F067FE64237B633423FA1828257B190D
:104FA00011001800FFF720FB7B191800FFF791F99B
:104FB0003B19180000F045FE0C23FA187B6811001D
:104FC000180000F001F8F7E7F0B58DB000AF786099
:104FD00039602F23FB1800221A707B681E687B68DB
:104FE0001B681B680C331D687B681033180000F0C9
:104FF0002AF901002C23FC1880235A006423300076
:10500000A847030023802C257B191B88002B00D187
:1050100012E17B681A0010327B191B88013B1900D2
:10502000100000F01DF903001B789BB21B029CB21C
:105030007B681A0010327B191B88023B1900100094
:1050400000F00EF903001B789AB22A26BB19A218A9
:105050001A807B681033180000F0F5F802007B1905
:105060001B88DBB2023BDBB228257C19190010003B
:1050700002F044FE030023807A19BB1912881B88B2
:105080009A4200D0BCE00F26BB1900221A707B6840
:105090009C687B6810330121180000F0E1F80500DE
:1050A0007B681133FF330121180000F0D9F80200AA
:1050B000BB192900200002F03AFC3500BB191B780F
:1050C000002B67D07B6810330021180000F0C8F86F
:1050D00004007B681133FF330021180000F0C0F892
:1050E000030022781A707B191B780133DAB27B191E
:1050F0001A707B681133FF330021180000F0B0F8FC
:1051000002007B191B782626BC191900100002F03A
:10511000F5FD030023807B6818001130FF307B19F8
:105120001B785A1CD1B27A191170190000F098F846
:105130000200BB191B88DBB21370BB191B881B0A4A
:105140009CB27B6818001130FF307B191B785A1C09
:10515000D1B22E007A191170190000F081F8030005
:10516000E2B21A707B681D687B681B681B68083395
:105170001C687B681133FF33180000F064F80100ED
:10518000BB191B789AB264232800A0472F23FB1871
:1051900001221A707B68DB680C243A19062118007A
:1051A00002F03EFA031E47D03B191B88002B43D068
:1051B0003A1910243B191100180000F061F83B194E
:1051C0001800FFF70BFD3B681B680C331B683A683F
:1051D0001000984764233B622023FA1818243B19D7
:1051E00011001800FFF700FA3B191800FFF771F8DB
:1051F0003B681B6808331B683A68100098471BE03F
:105200007B681E687B681B681B680C331D687B68A5
:105210001033180000F017F801002C23FC1880232D
:105220005A000A233000A847030023802C23FB18D0
:105230001B88002B00D0E3E72F23FB181B781800F6
:10524000BD460DB0F0BD80B582B000AF78607B6820
:10525000180000F027F803001800BD4602B080BD1A
:1052600080B582B000AF786039607B683A68110021
:10527000180000F024F803001800BD4602B080BDFD
:1052800080B582B000AF78603960396809880A005B
:1052900000210B0079680A604B607B681800BD46EE
:1052A00002B080BD80B582B000AF78607B68180026
:1052B00000F011F803001800BD4602B080BD80B5B3
:1052C00082B000AF786039607A683B68D318180004
:1052D000BD4602B080BD80B582B000AF78607B680B
:1052E0001800BD4602B080BD80B500AFFDF7AAF939
:1052F000C046BD4680BD80B500AF30BFC046BD468C
:1053000080BD80B582B000AF78607B68180000F087
:105310006DF803001800BD4602B080BD80B582B0B4
:1053200000AF78607B68180000F064F8C046BD46A6
:1053300002B080BD80B582B000AF786039607B6814
:105340001800FFF7EBFFC046BD4602B080BD00006D
:10535000174AF8B5136805000C00002B07D1154952
:10536000154B5B1A15495B18154913600B6008F063
:1053700057F9144F012800D16F4607F0DFFE124B9A
:105380001E683219BA4207D90C2301262B6007F098
:1053900063FF76423000F8BD1A60094A13681B1B90
:1053A00013600A4B1A6814191C6007F055FFF1E7E7
:1053B000D0050020281F00200090002000FEFFFFE5
:1053C000D4050020008E002004000020D805002015
:1053D00010B5EFF30583002B02D107F0AFFE10BD2F
:1053E00072B6FEE710B507F037FF10BD10B50AF032
:1053F00041FA10BD10B50AF047FA10BD10B5FFF71D
:1054000073FF012006F062FEFBE730B599B034224D
:1054100000210BA80AF069FA1022002168460AF060
:1054200064FA1C22002104A80AF05FFA80208000A0
:1054300004F082FC0A230B93F6330E93C03B1093C7
:105440003F3B11930733159380239B0216938023D0
:10545000002402259B050BA817930F941295139512
:10546000149404F095FC07232900684600930195E5
:105470000294039404F0EEFE432304A804930594DD
:105480000694079404F0C2FF19B030BD10B503F0C4
:10549000CDFCFFF7BAFF06F0CBFC0021044A05481B
:1054A00006F0FEFC044B186006F0DCFCFEE7C0468C
:1054B00008130108FD530008DC050020034B0268B7
:1054C00010B59A4201D103F0C5FC10BD004801405F
:1054D00007B501200A4B196C0143196480211A6C2D
:1054E000490502400092009ADA6BBF300A43DA6342
:1054F000DB6BC0000B400193019B03F0BDFC07BDBB
:1055000000100240084B026882B09A4209D1802004
:10551000064A4001916B01439163936B03400193F1
:10552000019B02B07047C0460030024000100240AC
:1055300010B5040088B01422002103A80AF0D5F9A0
:10554000114B22689A421DD10221104C1048626B07
:105550000A436263636B0B400193019BC023039377
:10556000AE3B0493113B059303A90533079303F066
:10557000CBFE8021E26B89030A43E263E36B0B40BD
:105580000293029B08B010BD00540040001002407E
:1055900000040050094B026810B59A420CD1084A29
:1055A0000849D36B08480B40D363402103F058FFF0
:1055B0008021054803F054FF10BDC0460054004050
:1055C00000100240FFFFDFFF000400501FB503681A
:1055D0001F4A93420BD180201E4A0001116C0143E7
:1055E0001164136C03400093009B05B000BD1A4A80
:1055F000934211D10220174AD16B0143D163D36B7F
:1056000000220340019311000E30019B03F040FC87
:10561000102003F067FCE8E7104A93420AD180208B
:105620000C4A0002116C01431164136C0340029395
:10563000029BDAE70A4A9342D7D18020054A8002CA
:10564000116C01431164136C03400393039BCCE77B
:10565000002C0140001002400004004000200040E7
:105660000044014010B5040088B01422002103A8B2
:105670000AF03BF92368154A934215D10120144AD8
:10568000516B01435163536B03A903400193019B89
:105690008023A0205B000393FE3B04930793C00587
:1056A00003F032FE08B010BD0A4A9342FAD1022339
:1056B000074A0948516B19435163526B03A91A40B9
:1056C0000292029A03930493EAE7C046002C014039
:1056D0000010024000200040000400500368124AFD
:1056E00010B5934205D1114A1149136C0B40136454
:1056F0000AE0104A934208D102210C4A1020D36BD1
:105700008B43D36303F0FAFB10BD0B4A934203D1E2
:10571000064A0A49136CE9E7094A9342F4D1034A5D
:105720000849136CE2E7C046002C0140001002401B
:10573000FFF7FFFF0004004000200040FF7FFFFF55
:1057400000440140FFFFFDFF10B504008EB014229D
:10575000002109A80AF0C9F823684D4A934227D1CD
:1057600080204C4BC001196C014319641A6C024033
:105770000192019A0122596BA020114359635B6B7E
:1057800009A913400293029BC023DB000993022363
:10579000C0050A930B920D9203F0B6FD00221B2068
:1057A000110003F075FB1B2003F09CFB0EB010BD35
:1057B000394A934223D18020364B8002D96B014372
:1057C000D963DA6B02400392039A0122596BA0203D
:1057D000114359635B6B09A913400493049B0C2389
:1057E000C00509930A3B0A930B920D9203F08CFDBE
:1057F00000221C20110003F04BFB1C20D4E7274A99
:10580000934224D18020234BC002D96B0143D9633A
:10581000DA6B02400592059A0222596B2048114327
:1058200059635B6B09A913400693069BC0239B0039
:10583000099301230B9303330A920D9303F064FD44
:1058400000221D20110003F023FB1D20ACE7154AA8
:105850009342ABD180200F4B0003D96B0143D96336
:10586000DA6B02400792079A0122596BA02011437C
:1058700059635B6B09A913400893089B03230993A1
:10588000013B0A9302330B920D93C005D6E7C04645
:105890000038014000100240004400400048004031
:1058A00000040050004C004003681E4A10B59342AB
:1058B0000ED11D4A1D49136CA0200B40C021C0050C
:1058C0001364C90003F0CCFD1B2003F017FB10BDCF
:1058D000174A93420BD1A020134A1649D36BC00537
:1058E0000B40D3630C2103F0BBFD1C20EDE7124AF3
:1058F00093420AD10C4A1149D36B11480B40C02185
:10590000D363890003F0ACFDE1E70E4A9342DED198
:10591000A020054A0C49D36BC0050B40D36303217B
:10592000F0E7C0460038014000100240FFBFFFFF13
:1059300000440040FFFFFDFF00480040FFFFFBFF69
:1059400000040050004C0040FFFFF7FF10B5006856
:1059500001F0E9F810BD10B5006801F01DF910BDA7
:1059600010B5006801F03BF910BD037F10B5012BA5
:1059700007D102210268D3688B43D36002F0A8FBF1
:1059800010BD022B07D104210268D3688B43D3607A
:1059900002F0ACFBF4E7042BF2D108210268D368D3
:1059A0008B43D36002F0B0FBEAE7000010B50100C2
:1059B00086B00022162003F06BFA162003F092FA4C
:1059C0008020144AC002116C01431164136C6946B3
:1059D0000340019302A8019B04F0FEFC04F0E8FCE4
:1059E0000D4C0E4B0E4923600E4BE360FAF7C6FBDD
:1059F00000230138606020002361A36005F026F8D1
:105A000003000120002B02D1200004F009FF06B0A2
:105A100010BDC04600100240E005002000480140D3
:105A200040420F00E70300007047FEE710B502F0A8
:105A300037FD04F00FFF10BD10B5024804F00AFF57
:105A400010BDC046E005002010B5034801F05EF827
:105A500005F0C2FD10BDC0460038014010B5034836
:105A600001F054F805F0B8FD10BDC04600440040F8
:105A700010B5054801F04AF805F0AEFD034801F005
:105A800045F805F0A9FD10BD00480040004C00405D
:105A90000120704710B509F0BDFD162303600120F9
:105AA000404210BD10B509F0B5FD16230360FEE7B6
:105AB00070B50E0014000025A54201DB200070BD6A
:105AC00000E000BF70550135F6E710B50020140066
:105AD00002F02EFF200010BD0120404270478023BD
