:020000040800F2
:10000000009000201D6A000841690008436900084B
:1000100000000000000000000000000000000000E0
:1000200000000000000000000000000095F0000843
:10003000000000000000000061F10008A5F10008C8
:100040006D6A0008000000006D6A00086D6A000813
:100050006D6A00086D6A00086D6A00086D6A000824
:10006000000000006D6A00086D6A00086D6A0008F3
:100070006D6A00086D6A00086D6A000800000000E3
:10008000456900086D6A00086D6A00086D6A00081D
:100090006D6A00086D6A0008516900086D6A000801
:1000A0006D6A00086D6A00086D6A000861690008E1
:0800B000756900088969000868
:1000C00010B5064C2378002B07D1054B002B02D02E
:1000D000044800E000BF0123237010BD4805002044
:1000E00000000000CC230108044B10B5002B03D006
:1000F0000349044800E000BF10BDC04600000000F6
:100100004C050020CC23010802780B78002A03D08C
:10011000013001319A42F7D0D01A70470023C25CF7
:100120000133002AFBD1581E7047000002B471460B
:1001300049084900095C49008E4402BC7047C0462A
:1001400003B47146490840004900095A49008E44E9
:1001500003BC7047002243088B4274D303098B42CF
:100160005FD3030A8B4244D3030B8B4228D3030C87
:100170008B420DD3FF22090212BA030C8B4202D329
:100180001212090265D0030B8B4219D300E0090A51
:10019000C30B8B4201D3CB03C01A5241830B8B425A
:1001A00001D38B03C01A5241430B8B4201D34B0343
:1001B000C01A5241030B8B4201D30B03C01A5241A8
:1001C000C30A8B4201D3CB02C01A5241830A8B422D
:1001D00001D38B02C01A5241430A8B4201D34B0216
:1001E000C01A5241030A8B4201D30B02C01A52417A
:1001F000CDD2C3098B4201D3CB01C01A524183092E
:100200008B4201D38B01C01A524143098B4201D367
:100210004B01C01A524103098B4201D30B01C01A92
:100220005241C3088B4201D3CB00C01A524183080C
:100230008B4201D38B00C01A524143088B4201D339
:100240004B00C01A5241411A00D201465241104699
:100250007047FFE701B5002000F0F0F802BDC0468E
:100260000029F7D076E7704703460B437FD400227E
:1002700043088B4274D303098B425FD3030A8B423A
:1002800044D3030B8B4228D3030C8B420DD3FF22A4
:10029000090212BA030C8B4202D31212090265D072
:1002A000030B8B4219D300E0090AC30B8B4201D325
:1002B000CB03C01A5241830B8B4201D38B03C01A6C
:1002C0005241430B8B4201D34B03C01A5241030BE3
:1002D0008B4201D30B03C01A5241C30A8B4201D394
:1002E000CB02C01A5241830A8B4201D38B02C01A3F
:1002F0005241430A8B4201D34B02C01A5241030AB6
:100300008B4201D30B02C01A5241CDD2C3098B429A
:1003100001D3CB01C01A524183098B4201D38B0117
:10032000C01A524143098B4201D34B01C01A5241BA
:1003300003098B4201D30B01C01A5241C3088B42FF
:1003400001D3CB00C01A524183088B4201D38B00EA
:10035000C01A524143088B4201D34B00C01A52418C
:10036000411A00D201465241104670475DE0CA0F63
:1003700000D04942031000D34042534000229C4623
:1003800003098B422DD3030A8B4212D3FC2289012D
:1003900012BA030A8B420CD3890192118B4208D303
:1003A000890192118B4204D389013AD0921100E065
:1003B0008909C3098B4201D3CB01C01A5241830979
:1003C0008B4201D38B01C01A524143098B4201D3A6
:1003D0004B01C01A524103098B4201D30B01C01AD1
:1003E0005241C3088B4201D3CB00C01A524183084B
:1003F0008B4201D38B00C01A5241D9D243088B42A1
:1004000001D34B00C01A5241411A00D20146634643
:1004100052415B10104601D34042002B00D54942A7
:10042000704763465B1000D3404201B5002000F0E6
:1004300005F802BD0029F8D016E770477047C0469E
:100440008446081C6146FFE71FB500F0D7FB002873
:1004500001D40021C8421FBD10B500F059FB404235
:10046000013010BD10B500F0C9FB002801DB0020F1
:1004700010BD012010BDC04610B500F0BFFB002824
:1004800001DD002010BD012010BDC04610B500F0F8
:1004900067FB002801DC002010BD012010BDC04614
:1004A00010B500F05DFB002801DA002010BD01202E
:1004B00010BDC046002B15D1002A13D1002906DB40
:1004C00001DC002806D00020C043410802E0802162
:1004D0000906002007B4024801A14018029003BD9C
:1004E0005DFFFFFF03B4684601B5029800F048F8CD
:1004F000019B9E4602B00CBC7047C046F0B5CE468C
:10050000474615042D0C2E0080B50704140C3F0C33
:100510009946030C7E435D43674363437F19340C64
:10052000E4199C46A54203D980235B029846C44443
:100530004B4643435143250C36046544360C240492
:10054000A4195B19591820000CBC90469946F0BDBF
:100550009E2110B5C905041CFFF7A2FF002803D196
:10056000201C00F091FE10BD9E21201CC90500F04A
:10057000C7FC00F089FE80231B069C466044F2E71E
:10058000F0B583B016001F000090019101F06AFEE3
:1005900004000D0002000B0030003900FFF7AEFF31
:1005A000009A019B121A8B41089920000A604B6047
:1005B000290003B0F0BDC046F8B54746CE46430219
:1005C0005B0A4400C20F9C464800DD004B02240E2B
:1005D0005B0A000E80B5984626009146C90FDB00E5
:1005E000271A8A4229D0002F15DD00284AD1002B76
:1005F00000D095E0ED08FF2C00D188E06B025B0A8B
:10060000E6B25B02F605580A3043D20710430CBC31
:1006100090469946F8BD002F00D087E0601CC0B21C
:10062000012800DCB6E0EE1A720100D5C5E0002E0C
:100630003DD1002200260023E3E7002F00DC96E0F6
:1006400000285DD0FF2C60D08022D20413431B2FE2
:1006500000DDECE02022D21B18009340F8405A1E27
:1006600093410343ED186B017BD50134FF2C00D17E
:10067000B7E0012207262A406B089A4D1D4015431A
:100680002E4029E0FF2CB5D08022D20413431B2F2B
:1006900000DDB2E02022D21B19009340F9405A1E1F
:1006A00093410B43ED1A6B015BD5AD01AE093000F0
:1006B00001F0BAFD05388640844265DC041B330036
:1006C00020200134E340041BA640751EAE41334395
:1006D00007261D0000241E4001224B461A40002E12
:1006E00004D00F232B40042B00D004356B0100D421
:1006F00080E70134E6B2FF2C2FD1FF26002380E7EC
:10070000002B52D1FF2C00D074E70A00ED08002D19
:10071000F3D08023DB032B435B025B0AFF2670E7E9
:10072000013F002FBED0FF2CB1D163E7002C47D092
:10073000FF2869D08024E4047A4225431B2A00DD87
:10074000C5E02C002026D440B21A95406A1E95417F
:1007500025435D1B04008946A5E7AB015B0A50E712
:10076000002401224B461A406B07BAD142E7002F02
:100770003BD10134E0B201284ADDFF2CBDD0072671
:10078000ED186D082E40A7E70723574D241A354072
:100790001E40A1E7002C1BD1002D6ED1002B00D1F3
:1007A0009AE00A001D003C0024E7013F002F00D121
:1007B00058E7FF2C00D04AE7A7E75E1B894676E79B
:1007C000002D1CD10A00FF281FD004001D0011E7D6
:1007D000002D5DD1002B17D180230022DB03FF26E3
:1007E0000FE70A00FF2600230BE7002C21D1002D84
:1007F00066D1FF28E9D11D0087E7012352E77A1C63
:10080000A7D0FA43FF2899D10A001D00FF24F1E682
:10081000002E21D1002D4FD0002B4CD0ED186B01B4
:100820009ED5314B07362E4001241D4054E701234D
:1008300018E7FF28DFD08024E4047F4225431B2FE4
:100840004DDC2026F61B2C00B540FC406A1E95416D
:100850002543ED18040006E7002DCCD0002B00D175
:1008600053E780216046C903084203D0404608424E
:1008700000D11D000121114047E7002B00D1B9E64E
:10088000EA1A500125D507265D1B2E40894623E72D
:10089000FF24002B00D1ADE680226046D203104237
:1008A00004D04046104201D11D00894601224B462A
:1008B000FF241A409EE62B00DD080A0000249DE676
:1008C0007A1CC6D0FF43FF28B9D11D001DE70125C2
:1008D0003FE7151E00D044E70022002391E60125E2
:1008E000B7E7C046FFFFFF7DFFFFFFFBF8B55746A8
:1008F0004E464546DE464402E0B546008846640A58
:10090000360EC70F002E63D0FF2E24D08023E400C4
:10091000DB041C43002399469B467F3E43464246E8
:100920005D02D20F5B006D0A1B0E9046924665D0A9
:10093000FF2B55D080220021ED00D2047F3B1543D0
:10094000F61A43464A467B400F2A00D98DE06D488F
:10095000920082589746002C54D108239946063BB2
:10096000FF269B46DAE70025534602291BD00329C0
:1009700000D1BFE0012928D030007F30002820DDE1
:100980006A0704D00F222A40042A00D004352A0125
:1009900003D530005C4A80301540FE2803DCAC01F2
:1009A000640AC2B201E0FF2200246402D205600A98
:1009B000DB07104318433CBC90469946A246AB4621
:1009C000F8BD0122101A1B287CDD00220024ECE770
:1009D000002C1DD104239946033B00269B469DE72E
:1009E000FF3E002D20D1022143464A467B400A4368
:1009F0000F2AD8D84548920082589746002D19D121
:100A00000121F1E70C239946093BFF269B4685E728
:100A1000200001F009FC7626431F9C40002376420B
:100A2000361A99469B4679E74A4603231A4391466C
:100A3000032186E7280001F0F7FB431F36189D408D
:100A4000763600217DE780240023E403FF22ACE713
:100A500000258023DB031C4228D01D4226D12B43D6
:100A60005C02640A4346FF229FE762016C01A242D6
:100A700024D21B210025013E012710006D005200E9
:100A8000002801DB944201D8121B3D4301390029A3
:100A9000F3D11400621E944125436DE7BA465946CE
:100AA00025005346022900D061E77CE78023DB0361
:100AB0001C436402640A3B00FF2276E7121B1A21E2
:100AC0000125D9E79E362A00B5402C00C240651E9C
:100AD000AC411443620704D00F222240042A00D004
:100AE0000434620103D4A401640A00225DE70122F8
:100AF00000245AE78024E4032C436402640AFF22A2
:100B000053E7C046A4250108FFFFFFF7E4250108CD
:100B100070B542004E024C0045026D0A120EC30F22
:100B2000760A240EC90FFF2A0FD0FF2C11D0012006
:100B3000A24200D070BDB542FCD18B420DD0002A3C
:100B4000F8D12800451EA841F4E70120002DF1D17D
:100B5000EBE70120002EEDD1E9E70020EAE7C046EF
:100B600070B54A004E02450244006D0A240EC30FC0
:100B7000760A120EC90FFF2C15D0FF2A0ED0002CBA
:100B800015D1002A01D1002E1CD0002D14D08B428B
:100B900027D00220013B1840013870BD002EEED056
:100BA00002204042F9E7002DFAD1FF2A0ED0002A98
:100BB0000ED1002EEDD00BE001230139994308003E
:100BC0000130EAE70020002DE7D0E2E7002EE7D170
:100BD0008B42DED1944205DD0221581E08400138C7
:100BE000DBE70024A24204DCB542D2D80020B542A3
:100BF000D3D2581E012398430130CEE730B54200CE
:100C000044024D02C30F4800640A120E6D0A000E22
:100C1000C90FFF2A12D0FF280CD0002A12D10028B9
:100C200019D1002D17D1002C2BD00220013B1840E8
:100C3000013826E0002DF0D0022022E0002CFBD16C
:100C4000FF281FD000281FD1002D1DD10220013BFD
:100C50001840013815E0002C0ED08B42E5D100225F
:100C6000904204DCAC42E0D80020AC4209D2581ECD
:100C700001239843013004E001230139994308001E
:100C8000013030BD002DD7D18B42CED18242E7DD7D
:100C90000221581E08400138F3E7C046F0B54E4621
:100CA00057464546DE46E0B543025B0A450083B041
:100CB0000F1C99462D0EC60F002D57D0FF2D24D0A6
:100CC0008020DB00C0041843002381469A469B46DF
:100CD0007F3D7C027A00FB0F640A120E984623D0F7
:100CE000FF2A4BD0E30080240020E4047F3A1C4319
:100CF000AD186B1C47460193534677403A000F2BC3
:100D000048D87D499B00CB589F46002B00D085E0FA
:100D100008339A46063B9B467C027A00FB0FFF2570
:100D2000640A120E9846DBD1002C00D090E05246A7
:100D300001231A4392460120DBE74C465846170030
:100D4000022824D0032800D1CFE00022002301286C
:100D50004DD15802D205400AFF071043384303B073
:100D60003CBC90469946A246AB46F0BD002B5BD1F9
:100D700004239A46033B00259B46AAE7FF35002C37
:100D800060D1524602231A4392460220B1E7FF2265
:100D90000023DEE74B461B0C9C464B462604360CD4
:100DA000180461463300220C6446000C43434E4352
:100DB0005043544380191A0C1218964203D98021CB
:100DC00049028C4664441B041B0C1004C0188301A8
:100DD0005E1EB341800E1843130C1B199B01034385
:100DE0001C00230179D5012362081C401443019A99
:100DF0007F32002A4DDD630704D00F232340042BEC
:100E000000D00434230103D53C4B019A1C408032AE
:100E1000FE2ABCDCA3015B0AD2B29AE70C239A46F5
:100E2000093BFF259B4654E7180001F0FDF94A46AF
:100E3000431F76259A4000236D4291462D1A9A460B
:100E40009B4646E7524603231A439246032050E747
:100E5000200001F0E9F9431F2D1A9C40763D002047
:100E600047E780230027DB03FF2272E7424666E75D
:100E70004C463200584662E780234A46DB031A425A
:100E800022D01C4220D123435B025B0A4746FF224B
:100E90005FE701239A1A1B2A21DC23000199D34022
:100EA0009E318C401A0023005C1EA34113435A0755
:100EB00004D00F221A40042A00D004335A0111D45E
:100EC0009B015B0A002244E780234A46DB0313436D
:100ED0005B025B0A3700FF223BE7019587E70022B0
:100EE000002336E70122002333E78023DB0323437B
:100EF0005B025B0AFF222CE724260108FFFFFFF7B5
:100F0000F8B54746CE464400C20F80B547024802B6
:100F1000400A8446664648007F0A240EF6002500F3
:100F20009046FB00000EC90FB146FF2800D185E0B6
:100F300001267140261A914257D0002E43DD002829
:100F400000D07FE04946002900D1AAE0013E002EF2
:100F500000D0F7E05B1A5A0100D48BE09B019C099A
:100F6000200001F061F905388440854200DDD3E0BE
:100F7000451B230020200135EB40451BAC40621E81
:100F800094412343072400251C40012241460A4086
:100F9000002C04D00F211940042900D0043359013A
:100FA00000D480E00135ECB2FF2D00D0A3E0FF2497
:100FB00000235B02E405580AD207204310430CBC0F
:100FC00090469946F8BD002E74D1601CC0B201282D
:100FD00000DCA7E04A469C1A620100D5B6E0002C6E
:100FE000BED1002200240023E3E7002E00DC85E0D0
:100FF000002846D0FF2C49D080224846D204104316
:10100000814601221B2E09DC20204C46801B844097
:101010004A462000F240441EA04102439B185A0158
:1010200028D50135FF2D00D1A8E0012207249449DD
:101030001A405B080B4013431C40A6E7002E00D06B
:1010400078E775E7FF2C54D080224946D20411433B
:10105000894601221B2E09DC20214846891B884035
:101060004A460100F240481E81410A439B1A5A0138
:1010700000D573E7012241460A40590700D089E7AD
:1010800011E04846002858D1FF2C0CD1DB08002B7A
:1010900000D18CE78020C00303435B025B0AFF247E
:1010A00087E7FF2C25D0DB08FF2DF0D05B025B0A21
:1010B000ECB27EE7002C4DD0FF2818D08024E40449
:1010C000724223431B2A00DDC4E01C002025D440CB
:1010D000AA1A93405A1E934123434A460500D31A45
:1010E000884638E7721CF8D0F243FF28EAD10A009C
:1010F0004B46FF25D7E79B015B0A5AE7002E41D1FB
:10110000651CE9B2012945DDFF2D00D14FE7072419
:101110004B445B081C4038E707225A4B2D1A2340EA
:10112000144032E7002C1DD1002B7AD14B46002B06
:1011300000D191E00A000025B5E7013E002E19D14B
:101140004B446CE7FF2C84D1FF25ACE74A46884628
:10115000D41A05E7002BC5D10A00FF28C8D0050026
:101160004B46A0E7002B49D14B46002B77D00A0015
:10117000FF2598E7FF2C00D043E787E70A00FF240C
:10118000002316E7002C15D1002B57D1FF28E6D1FC
:101190004B467BE7002C20D1002B57D04946002935
:1011A00053D04B445A0168D50724364A1C400125C8
:1011B0001340EAE6FF28EBD08022D20476421343A4
:1011C0001B2E53DC2025AD1B1A00AB40F2405C1EE9
:1011D000A34113434B44050021E7002BD8D04946D7
:1011E000002900D152E78021C9030F4200D14DE709
:1011F0006046084200D049E74B4647E74846FF258E
:10120000002800D14FE78022D203174204D0604665
:10121000104201D14B46884601224146FF250A4033
:1012200041E7484600281FD01A1A500120D54A46E7
:101230000724D31A1C4088460025A6E6741CC9D092
:10124000F643FF28BCD14B4620E799464B46002584
:10125000DB082BE7012340E700220023A9E68023D7
:101260000022DB03FF24A4E600251CE70123B1E7ED
:10127000002AF1D013000025FCE60025FAE6C0465E
:10128000FFFFFF7DFFFFFFFB41024200C30F490A42
:10129000120E00207E2A0DD99D2A0CD88020000431
:1012A0000143952A0ADC9620821AD1404842002B3D
:1012B00000D108007047034A9818FBE7963A91401E
:1012C000F4E7C046FFFFFF7F70B500283DD0C3178D
:1012D000C5185D40C40F280000F0A6FF9E22121A18
:1012E000962A07DCD2B2082833DD08388540680228
:1012F000400A23E0992A0BDD052329001B1AD94057
:1013000003001B339D402B005D1EAB4119430D00B4
:10131000052801DD431F9D402B000F490B406E0740
:1013200009D00F263540042D05D004335D0102D5C8
:101330009F220B40121A9B01580AD2B24002D205DA
:10134000400AE4071043204370BD0024002200201F
:10135000F4E76802400AF1E7FFFFFFFB70B5041EE7
:1013600034D000F061FF9E22121A962A07DCD2B216
:1013700008282EDD083884406002400A21E0992ABE
:1013800009DD030021001B3399404B1E99410523C1
:101390001B1ADC400C43052801DD431F9C40230041
:1013A0000D490B40650709D00F252C40042C05D0B2
:1013B00004335C0102D59F220B40121A9B01580A8C
:1013C000D2B24002D205400A104370BD0022002074
:1013D000F7E76002400AF4E7FFFFFFFBF0B54F4676
:1013E0004646D6460C000903C0B5490A470F5E00C1
:1013F00039431F03DB0F9C4665007B0A570F1F43D1
:101400006D0DE40F760DA146C000B846D200AB1BAF
:1014100064457BD0002B5FDD002E00D0A4E03E00B1
:10142000164300D112E15E1E002E00D09EE1871A05
:101430004346B84280410125C91A4042091A0B02AD
:1014400000D431E149024E0A002E00D16EE1300095
:1014500000F0EAFE0300083B1F2B00DD61E12022C3
:101460003900D21A9E40D1409F400E439D4200DD7C
:1014700051E15D1B6B1C1F2B00DD7CE12021C91A93
:101480003D0030008F408840DD40791E8F413100A3
:1014900007222843D940002507433A40002A09D0B3
:1014A0000F233B40042B05D03B1DBB42BF417F4275
:1014B000C9191F000B0200D426E26A1CC64B550551
:1014C0006D0D9A4200D106E1C44AFF080A40530755
:1014D00052023B43120B8EE0002B00D0B8E06B1C95
:1014E0005B055B0D012B00DC30E1871A4346B842F7
:1014F000B641CB1A76429E1B330200D54CE13B002D
:101500003343A1D100220024002570E0002B00DC31
:10151000E5E0002E00D183E0AF4EB54260D08026DA
:1015200036043743B846382B00DC3EE143461343CC
:101530001F007A1E97413F18874280414042091898
:101540000B0200D4B0E0A44B01359D4200D1C3E0B2
:10155000A24A7B080A4001210F401F435108D307CC
:1015600007221F433A4099E79B4EB54238D0802668
:1015700036043743B846382B00DDDCE01F2B00DC97
:1015800030E11E004746203EF740BC46202B04D0E9
:101590004026F31A46469E403243170063467A1EA1
:1015A00097411F43CCE0002B00D104E24346134394
:1015B00000D159E14B07C00818438023C9081B0319
:1015C000194208D04546ED081D4204D14346D008D3
:1015D000590708432900420FC9007F4D1143C0003D
:1015E0004B07CA087C49C00803438D4268D01203E8
:1015F0006D05120B6D0D002112031800130B0A0D5F
:1016000012051A43764B2D0513402B435B00E4076C
:101610005B08234319001CBC90469946A246F0BDC6
:101620003E00164312D05E1E002E00D000E1871847
:101630008742804141444042091801250B0233D5BD
:10164000022585E764463300414610001D00C7E7C8
:10165000002D00D0DAE00C000443F3D05C1C00D174
:101660009FE15D4CA64200D12FE1DB43382B00DD2A
:1016700066E11F2B00DD83E120240500E41A0F0042
:10168000DD40D940A0404346A7405B1A441EA0411C
:1016900098462F433843171ABA4292414346524262
:1016A000991A64463500CAE607223A40002A00D05B
:1016B000F6E64B07CA084849FF083B438D4296D1DE
:1016C0001900114300D19EE1802109030A4312034E
:1016D000120B414D8FE71500002200238BE7002BF2
:1016E00000D0C7E06B1C5F057F0D012F00DCF1E02F
:1016F000394DAB4200D1B9E085180A0085428941D5
:101700004244494251180722CF076D082F43490828
:101710003A401D00C2E607223049ED1A31403A40F6
:10172000BCE63E002838864000279FE6380000F0DF
:101730007BFD20308EE6434613431F007A1E9741FF
:10174000C71BB84280414042091A78E60E003B00B0
:1017500006431343002D61D1002E00D0F4E0002B8E
:1017600000D11BE164463900100039E71A4FBB4233
:101770007AD03300FFE630001F3DE840202B03D035
:101780004021CB1A9E4037437B1E9F4107220743CF
:101790003A400021002589E7171A4346BA42B6416C
:1017A000591A76428E1B64464EE61F2B00DDADE0D3
:1017B00020264746F61AB740B9461700B246DF4022
:1017C0004E463E4337005646B240561EB24117437E
:1017D0004246DA408918AEE6FF070000FFFF7FFFB0
:1017E000FFFF0F8020264746F61AB740B94617007C
:1017F000B246DF404E463E4337005646B240561E84
:10180000B24117434246DA40891A99E77F4CA64213
:101810005BD0802424045B42214327E7002E0CD1B7
:10182000002B00D1CBE0644639001000774DD7E69D
:10183000764FBB4218D0330075E6002B14D04B070F
:10184000C00818438023C9081B03194207D0FC08AD
:101850001C4204D17907D0080843E14621004C46D8
:10186000420FC9001143C000684DB9E61D000022B7
:101870000023C0E6002D5BD10D00054300D1E2E658
:101880005D1C00D1B0E0614DAE421FD0DB43382B70
:1018900071DC1F2B00DD96E020250F00ED1AAF4014
:1018A000B9460700AA46DF404D463D432F00554646
:1018B000A840D940451EA84188440743BF18974215
:1018C00092415142414435003AE664463500414672
:1018D000100085E60B000343002D00D063E6002BCB
:1018E000F5D04346134300D17AE6871887428041FA
:1018F00007224144404209183A400B0200D4D5E681
:10190000434B01351940C9E5380069E61E004746DA
:10191000203EF740BC46202B04D04026F31A464612
:101920009E403243170063467A1E97411F4302E6EA
:10193000364DAE42CAD080252D045B422943A6E72E
:101940000843411E8841A6E6002B00D148E6871ACD
:101950004346B842B641CB1A76429E1B33024BD562
:10196000171A4346BA429241591A5242891A07221B
:1019700064463A4092E501430F00791E8F419DE78E
:101980001C000F00203CE740202B03D04024E31A2A
:1019900099400843411E884138437CE600220024D8
:1019A00025E6171A4346BA429241591A5242891AF9
:1019B0006446350043E541461000144D10E6802290
:1019C0000024120380E61D000F00203DEF40BC46BE
:1019D000202B03D04025EB1A9940084307006346AB
:1019E000781E87411F4369E7871897429B4141440E
:1019F0005B42C9183500A3E53B003343CED0072234
:101A000031003A4052E600231A00F4E5FF070000D7
:101A1000FFFF7FFFF0B55746DE464E464546E0B530
:101A2000834607000E03480085B092461C00360B23
:101A3000400DCD0F002800D19DE0954B984239D044
:101A40008023F6001B041E43924A7B0F33439946C2
:101A5000944603006344009300230026FF00029392
:101A600023031B0B98466300E40F52465B0D019461
:101A700000D1B3E086498B4200D19EE04246D100BE
:101A8000802212040A435146490F11438B46814973
:101A900052468C4600996344CB1A0021D200009331
:101AA0002B0063409A460F2E00D905E17A4BB60011
:101AB0009B599F465B463343994600D0B8E00223CA
:101AC0000826002700900293CAE7CB463A00029905
:101AD0000195019B9A46022927D0032900D180E273
:101AE000012944D06D49009B8C4663441C00002CA6
:101AF00038DD530700D013E2D2085B46DB0109D57D
:101B00005946674B19408B468021C9008C46009B83
:101B100063441C00634B9C4207DC5B4664055F0723
:101B20005B0217431B0B620D02E000230027584A9B
:101B300000211B031C0B0B0D1B05234314055A4AE4
:101B4000380013401C4353466400DB0764081C4301
:101B5000210005B03CBC90469946A246AB46F0BD7C
:101B60000122524201231B1B382B00DCADE1002275
:101B700000230027DCE75B46334399465ED0002E06
:101B800000D18AE1300000F04FFB03000B3B1C2B1F
:101B900000DD7BE11D22D31A5A460100DA400839E4
:101BA0008E4013005F46334399468F403F4B0026DB
:101BB0001B1A00930023029352E7414653460B43FE
:101BC0003B499B468C46009B634400935B46002B3D
:101BD0003BD1022300221E43022161E74346134307
:101BE0009B4637D04346002B00D162E1404600F0CF
:101BF0001BFB03000B3B1C2B00DD53E102004146A5
:101C0000083A914088461D21CB1A5146D9400B0015
:101C100041460B439B46534693401A00009B25497F
:101C20009C46604403008C4663440093002137E7E0
:101C30000323B14600900C26029311E70023009382
:101C400001330426002702930AE70323C3461E43F9
:101C5000032125E701331E430022012120E7002351
:101C60009A46802300271B03094A61E780234946DF
:101C70001B03194200D1E2E05946194200D0DEE0D0
:101C80000B431B0317001B0BA246014A50E7C0463B
:101C9000FF07000001FCFFFF64260108FF030000AE
:101CA000FFFFFFFEFE070000FFFF0F800DFCFFFFA0
:101CB00001F8FFFFF3030000D94500D9CBE000D1C4
:101CC000C6E03C0048460027009B013B00935B4672
:101CD000160E1B021E431302984633041B0C994632
:101CE000310C0191FEF7BCFA4A4642430B04210C29
:101CF000050019438A4207D98919013D8E4203D84C
:101D00008A4201D9851E8919881A0199FEF7A8FA15
:101D100009048C464A46210464464243090C0300E8
:101D200021438A4204D98919013B8E4200D8F1E04F
:101D30002D041D43AB464346891A4246280C120423
:101D40001D0C5B46140C22001B041B0C5A4303940D
:101D50006B434443029568431B19150CEB189C42D6
:101D600003D980246402A44660441C0C15041B049F
:101D70002D0C20185D19814277D373D00C1AA24A1A
:101D80007D1BAF42BF419446009B7F426344E01BF2
:101D90001C00864200D1DBE00199FEF761FA4A4659
:101DA00042430B04290C070019438A4207D98919B9
:101DB000013F8E4203D88A4201D9871E8919881AA9
:101DC0000199FEF74DFA09044A46894629044D4611
:101DD0004243090C030029438A4207D98919013B70
:101DE0008E4203D88A4201D9831E89193F04891A79
:101DF0003A00039F1A43380013041B0C58438146D2
:101E00000298150C6F43434345434846000C8446F3
:101E1000DB1963449F4203D9802040028446654415
:101E200048461F0C00041B04000C7D191818A94219
:101E300000D284E000D17FE001231A4357E68023DB
:101E40004A461B0313431B031B0BAA466F4A6FE64C
:101E5000BA4200D935E74B46DC0758087B081C43DB
:101E6000FF0734E70024AF4289D247444745A441E5
:101E70005B466442A4196418013BA6421ED2A042EC
:101E80006DD800D1B6E0241A9B4678E703005A4685
:101E9000283B9A400027914688E6584600F0C4F94E
:101EA000203072E603005246283B9A4093460022B7
:101EB000B4E6504600F0B8F920309AE6A642E2D1E6
:101EC000B845DCD9341A9B4659E71F2B65DC504CCA
:101ED0000099A4465C46614408008C401100824091
:101EE000D940501E82410C4314435A46DA40130035
:101EF000620709D00F222240042A05D02200141DB7
:101F00009442894149425B181A0262D5012200239A
:101F100000270DE68A4200D80AE7831E891907E7E1
:101F20000F231340042B00D1E6E5171D9742924181
:101F300053429B44FA08E0E5002800D1D7E5711828
:101F4000531EB14227D3A94215D358D01A0073E7C4
:101F5000002B00DC04E6012300229B44CDE5022394
:101F60004744474589415B429C46494289190C19BF
:101F7000E344241A03E743465F0047459B41B846C4
:101F80005B429E19023A8919A94200D054E74045A4
:101F900000D051E7ABE51A00F6E71F215F46494242
:101FA0000C1BE740202B07D01A49009B8C4663444A
:101FB00018005B4683401A43501E82413A4307276C
:101FC0000023174009D00F210023114014000429D9
:101FD00095D122005F075B021B0BD208174300223A
:101FE000A6E5802359461B030B431B0317001B0B5D
:101FF000064A9DE5BD42B2D89B460024BFE6804517
:10200000B9D31A00C3E7C046FF030000FF07000072
:102010001E0400003E04000010B5041E25D000F090
:1020200003F9144B1B1A5B055B0D0A2812DD0B38F4
:10203000844000222403240B0021100024030A0DF5
:10204000240B120522430C4C1B05224013435B005A
:10205000590810BD02002100153291400A000B21E1
:10206000081AC4402403240BE6E7002300240022BE
:10207000E2E7C0461E040000FFFF0F804100090E8A
:102080004B1C70B5DBB24602750AC40F012B14DD80
:10209000E0239B006D07360BCB1800210A0D2800AA
:1020A00012051C4D32435B052A405B0813435B005D
:1020B000E4075B082343190070BD002914D1002DEB
:1020C0001ED0280000F0B0F80A281CDC0B232A00E0
:1020D0001B1ADA40030015339D400F4B12031B1AE5
:1020E0005B05160B5B0DD8E7002D06D0320B802662
:1020F00036036D071643094BCFE7084B0026CCE7A4
:1021000000230026C9E703002A000B3B9A40002564
:10211000E3E7C046FFFF0F8089030000FF070000D0
:10212000F0B54C00640D0B03621C5B0A460F5205B0
:10213000C90F1E43C500520D012A29DD374BE71890
:10214000FE2F1CDC002F3BDD8001431E984107223F
:10215000F3006D0F03432B431A40002A04D00F22D3
:102160001A40042A00D004338022D2041A4024D01A
:102170000137FAB2FF2F02D09B01580A01E0FF227B
:1021800000204002D205400AC90710430843F0BDB1
:102190003543002C04D1002D0AD100220020F0E7A5
:1021A000002DECD08020C0033043FF22E9E700245B
:1021B00000235B02580AE2B2E3E7DB083C00F8E7E1
:1021C0003B001733F3DB80231B0433431E26F61B2F
:1021D0001F2E14DD02225242D71B1A00FA401700AC
:1021E000202E04D00E4A94466444A3401D432B0085
:1021F0005D1EAB4107223B431A400027ADE7094A69
:102200002800A218954093406C1EA541F04007227B
:102210002B4303431A4000279FE7C04680FCFFFF83
:10222000A2FCFFFF82FCFFFF1C2101231B0498423C
:1022300001D3000C10391B0A984201D3000A083957
:102240001B09984201D30009043902A2105C40180E
:102250007047C046040302020101010100000000B2
:1022600000000000F0B54E465746DE464546E0B554
:102270000F00002183B006008946002F06DA3900DE
:10228000002746428F41012149428946002B07DA47
:102290004946C943100089461900002342428B4138
:1022A00034003D0092469846BB4269D866D041460C
:1022B000504600F0AFF883463900300000F0AAF82D
:1022C0005B461B1A9C46203B9B4600D575E0514659
:1022D000584681400B005146604681400A00BB428F
:1022E00061D85ED034003D005946A41A9D410029B2
:1022F00000DA7AE000210020012600900191594681
:102300008E400196614601268E4061460096002966
:1023100050D0D90756085F080E4363460EE0AF421F
:1023200001D1A6420CD8A41BBD41012124196D4145
:102330000022013B64185541002B06D0AF42EED974
:10234000013B24196D41002BF8D1009801995B469F
:1023500000196941002B3DDB2E00DE4063462C0056
:10236000DC405B46002B4BDB34005D46AC40230079
:102370006446A6403200801A994103E0B24296D9E1
:10238000002000214B46002B04D003000C0000214C
:102390005842A14103B03CBC90469946A246AB4688
:1023A000F0BDB1429ED9002100200090019161460C
:1023B0000029AED100980199E4E7202362465146F6
:1023C0009B1AD9404046009161468840030000991D
:1023D0000B4380E7624620239B1A2A009A4026007E
:1023E00013006246D6401E43B8E761462026012707
:1023F000761A00200021F74000900191019781E7B3
:102400006746202362463500BC409B1ADD4023000E
:102410002B43ADE710B5002903D1FFF705FF2030AE
:1024200002E0081CFFF700FF10BDC04680B582B077
:1024300000AF786039603B681800BD4602B080BDCF
:1024400080B582B000AF78600CF064FE7B68180045
:10245000BD4602B080BD80B582B000AF78600CF0A0
:1024600065FE7B681800BD4602B080BD90B585B0A2
:1024700000AF786039607B6800221A607B680022B8
:102480005A607B6800229A607B6800221A730C24D1
:102490003B191800FFF7D4FF3B681A687B681A6085
:1024A0003B685A687B685A603B689A687B689A60A8
:1024B0007B6800221A733B191800FFF7CCFF7B687A
:1024C0001800BD4605B090BD80B582B000AF786001
:1024D00039607B681A683B681B68D31A5A425341BB
:1024E000DBB21800BD4602B080BD80B582B000AF3F
:1024F00078607B681800BD4602B080BD80B582B0B0
:1025000000AF78607B681800BD4602B080BD80B522
:1025100082B000AF78607B6800229A607B68180008
:10252000BD4602B080BD80B582B000AF78607B68E8
:102530009B68002B05D07B689B68786879680322CC
:1025400098477B681800BD4602B080BD80B582B058
:1025500000AF78607B681800FFF7E5FF7B68180024
:10256000BD4602B080BD000080B582B000AF78608B
:10257000034A7B681A607B681800BD4602B080BDC4
:102580003027010880B582B000AF7860034A7B68CD
:102590001A607B681800BD4602B080BD3027010874
:1025A00080B582B000AF78607B681800FFF7EAFF63
:1025B0007B680421180003F049FE7B681800BD46C3
:1025C00002B080BD80B584B000AFF860B9607A60B9
:1025D000FB681800FFF7C8FF0B4AFB681A60FB682E
:1025E000BA685A60FB687A689A60FB689A68FB6808
:1025F0009B681B680C331B6810009847FB68180029
:10260000BD4604B080BDC046B428010880B584B082
:1026100000AFF860B9607A60FB68BA681A60FB685E
:102620007A685A60FB681800BD4604B080BD80B56A
:1026300082B000AF78607B681800BD4602B080BDF4
:1026400080B582B000AF786039607B683A681A6004
:102650007B681800BD4602B080BD80B584B000AF75
:10266000F860B9607A603B60FB68BA681A60FB6822
:102670007A685A60FB683A689A60FB681822BA1850
:1026800012781A74FB680022DA60FB681800BD46F5
:1026900004B080BD80B582B000AF78607B68002256
:1026A0001A607B6800225A607B6800229A607B680F
:1026B00000221A737B681800BD4602B080BD80B549
:1026C00082B000AF78607B68180010231A000021E8
:1026D0000EF08DFC7B681800FFF7DCFF7B681800AC
:1026E000BD4602B080BD80B582B000AF78607B6827
:1026F000180000F019F8031E01D00DF013FE7B68DE
:102700001800BD4602B080BD80B582B000AF7860D1
:1027100039607B683A6811001800FFF7A7FE7B68F4
:102720001800BD4602B080BDB0B58AB000AF786079
:102730007A6808243B1911001800FFF7E5FF1825F7
:102740007B191800FFF7BBFF7A193B19110018001D
:1027500000F009F803001A0001235340DBB218000F
:10276000BD460AB0B0BD80B582B000AF78603960B8
:102770007B683A6811001800FFF7A6FE03001800F6
:10278000BD4602B080BD80B582B000AF78603960D0
:102790007B683A681A607B681800BD4602B080BD4D
:1027A00080B584B000AFF860B9607A603B60FB68C8
:1027B000BA681A60FB687A685A60FB683A689A607F
:1027C000FB68BA69DA60FB6800221A61FB681800CE
:1027D000BD4604B080BD80B584B000AFF860B9607C
:1027E0007A603B60FB68BA681A60FB687A685A6076
:1027F000FB683A689A60FB68BA69DA60FB6818009F
:10280000BD4604B080BD80B582B000AF786039604D
:102810007B6844221A707B683A685A607B681800AB
:10282000BD4602B080BD80B584B000AFF860B9602D
:102830007A603B60FB68BA681A60FB687A685A6025
:10284000FB683A689A60FB680022DA60FB6818004F
:10285000BD4604B080BD80B584B000AFF860B960FB
:102860007A603B60FB68BA681A60FB680433180042
:1028700006F0D4FDFB687A689A62FB683A685A648D
:10288000FB681800BD4604B080BD80B582B000AFC3
:1028900078607B681B680221180006F0A9FDC0461D
:1028A000BD4602B080BD000080B582B000AF786048
:1028B000034A7B681A607B681800BD4602B080BD81
:1028C0001027010880B582B000AF78607B681800DF
:1028D000FFF7EAFF7B680421180003F0B7FC7B6870
:1028E0001800BD4602B080BD80B582B000AF7860F0
:1028F000034A7B681A607B681800BD4602B080BD41
:102900006827010880B582B000AF78607B68180046
:10291000FFF7EAFF7B680421180003F097FC7B684F
:102920001800BD4602B080BD80B582B000AF7860AF
:10293000034A7B681A607B681800BD4602B080BD00
:102940004C27010880B582B000AF78607B68180022
:10295000FFF7EAFF7B680421180003F077FC7B682F
:102960001800BD4602B080BD80B582B000AF78606F
:102970007B681B68180002F031FDC046BD4602B0FE
:1029800080BD80B582B000AF78607B681B6818009E
:1029900002F01EF9C046BD4602B080BD80B582B0CF
:1029A00000AF78607B681B68180006F0AFF9C0467E
:1029B000BD4602B080BD80B582B000AF78607B6854
:1029C0001B68180003F054FAC046BD4602B080BD33
:1029D00080B582B000AF78607B681B68180002F099
:1029E000D5FFC046BD4602B080BD0000F0B5FD4C2D
:1029F000A54402AFFC4D7B190021180000F0D6FA67
:102A0000E1235A02F949FA4C38197B190193002342
:102A10000093002304F064FD7B191800FFF796FD76
:102A20003A19F44EBB1901211800FFF7EFFDF24AE5
:102A3000BB191100180001F04DFFC925ED007B19ED
:102A40001800FFF7F4FD7A19EC497B181100180003
:102A5000FFF7F6FDBA197919E9480400381802237E
:102A6000FFF7F9FE20003B18180002F0EDFC802370
:102A70005A007B190C21180005F010FDE14ABF2116
:102A8000C9000C007B181100180006F0BDFBDE4BDE
:102A9000FB18BE22D200BA18DC490E00791878194A
:102AA00000F026FA33001E00F9180A6821007B188E
:102AB0001100180006F0B8FB3300F8180568BE22B4
:102AC000D200BA181668D04BFB181C68BF21C90089
:102AD0007B181A00CE4BFB181100180000F07EFA8C
:102AE000CC49CD4AB818CA4BFB1801930094330067
:102AF0002A0004F0F5FCC64BFB181800FFF726FD72
:102B0000A023DA05BB23DB001C00FB1810211800F2
:102B100004F04EF82300FA18BF4BF918BF4806001E
:102B20003B181800FFF74EFDBD4804003A18C925B0
:102B3000ED007B190221180005F012FD20003B1862
:102B40001B88DBB2AD4ABC1830003A18BF21C9005F
:102B50007918ED208000381800932300FFF77DFDE1
:102B6000B04ADC2189000C007B181100180004F029
:102B700089FB21007918D9239B001C00FB18002237
:102B8000180004F019FAA84AC82189000E007B1821
:102B90001100180004F076FB31007918C5239B0062
:102BA0001E00FB180022180004F006FA31007A1803
:102BB00021007918C3239B001C00FB18180005F0A6
:102BC000B0FA9A4BFA187B190021180005F0C8FCDE
:102BD000C2239B00FA187B190121180005F0C0FCE4
:102BE000934BD622D2009446BC4463441B881A00FF
:102BF000904BD621C9008C46BC4463441B883919CC
:102C0000BC208000381805F0BBF98B4AA8239B0034
:102C1000FB181100180004F063F8884A1400BB1870
:102C20000021180000F0C2F996239A018449A620D9
:102C30008000060038183B190193002300930023FD
:102C400004F04EFC2200BB181800FFF77FFC320096
:102C5000BA18A5239B00FB1811001800FFF793FD7D
:102C6000644EBC19BC2080003A18A5239B00F918BB
:102C7000A0239B00F8187B1900932300FFF790FD19
:102C80005F483B186F483A1813603A189C20800040
:102C90003B181100180000F0E3F9A0239B00FB187B
:102CA000D220C0003A1813603A18982080003B18D0
:102CB0001100180000F01AFAED2189007B18624912
:102CC0007A1813607A18942189007B181100180073
:102CD00000F052FAD324E4003B190021180000F060
:102CE00065F9E1235A02594992239B00F8183B19D0
:102CF000019300230093002304F0F2FB3B1918001A
:102D0000FFF724FC3D4ABC18394BFA1892239B006C
:102D1000F918382038187B1900932300FFF75BFD62
:102D20003822BB18D522D200B9180B60BA18282156
:102D30007B181100180000F065FAA8239B001C0006
:102D4000FA182023FB1811001800FFF75CFD7B190F
:102D5000BA192025791910257819FFF764FD7B1918
:102D60003B4D7A1913607A193B001100180000F0EE
:102D70008FFA9C25AD007B1918000DF068F998209A
:102D8000800006003B1818000DF061F994218900BD
:102D90007B1818000DF05BF928203B1818000DF087
:102DA00056F93B0018000DF052F93B001800FFF7F0
:102DB0009AFC28203B181800FFF795FC92239B00F3
:102DC000FB18180001F01AFA942189007B181800EA
:102DD000FFF789FC30003B181800FFF784FC7B19D3
:102DE00038E0C04644F9FFFF5C06000000480040A0
:102DF000540600004C0600001C2401084406000094
:102E0000FC05000000040040EC050000F405000093
:102E10006C06000000440040E4050000CC05000002
:102E2000CA050000002C0140002000400A030000F9
:102E30005AFCFFFF58FCFFFF005400407C060000D6
:102E4000003801408C06000094060000004C004051
:102E5000AC0600001800FFF746FCA625AD007B1964
:102E6000180001F0CBF925007B19180001F056FA83
:102E7000C525AD007B19180001F02CFAD921890075
:102E80007B18180001F026FA0C483B18180001F0D6
:102E9000FDF9BB21C9007B18180001F0D3F9084ADD
:102EA000BB18180001F0AAF9064C3B19180001F0F4
:102EB000A5F9C046BD46044B9D44F0BDCC050000BD
:102EC000E405000054060000B406000080B582B09E
:102ED00000AF786039603B681A687B681B689A426B
:102EE00001D23B6800E07B681800BD4602B080BD9F
:102EF00090B589B000AFF860B9607A603B60122489
:102F00003A19FB680321180005F02AFB3B191B88BE
:102F10001A00642353431A00BB681A6096239B016E
:102F20007B61E1235B02BB611823FA18BB681100C7
:102F30001800FFF7CBFF02001423FB181100180044
:102F400000F0D2F903001A68BB681A6010243A191D
:102F5000FB680421180005F003FB7B6800221A605F
:102F60003B191B881B0A9BB2022B02D17B680122F2
:102F70001A601023FB181A881F217B181A703B68EF
:102F800000221A607B181B78012B03D13B680222B8
:102F90001A6007E01F23FB181B78022B02D13B6845
:102FA00001221A60C046BD4609B090BD80B582B00E
:102FB00000AF786039607B681800FFF7A8FA7B687B
:102FC0001800BD4602B080BD80B582B000AF786009
:102FD0007B681800BD4602B080BD000090B583B08C
:102FE00000AF786039607B681800FFF790FA3B000B
:102FF000180000F08BF9031E0FD07C683B0018000E
:10300000FFF7E2FF03001900200000F088F97B6859
:10301000044ADA607B68044A9A607B681800BD46FF
:1030200003B090BD453300086533000880B582B019
:1030300000AF78607B681800BD4602B080BD90B5D7
:1030400085B000AF78607B681800FFF7EFFF0300E2
:103050001900201C00F010FAC046BD4605B090BD16
:10306000B0B586B000AF786039607B681800FFF7B4
:1030700026FB00237B613B681800FFF7D7FF0200A7
:1030800010257B191100180000F0E3F90C243B19FE
:103090007A191100180000F00AFA39197B68002229
:1030A00018000CF097FF3B19180000F01CFA7B6821
:1030B0001800BD4606B0B0BD80B582B000AF7860E4
:1030C0007B681800BD4602B080BD90B585B000AFEA
:1030D00078607B681800FFF7EFFF03001900201CE1
:1030E00000F07FFAC046BD4605B090BDB0B586B0D1
:1030F00000AF786039607B681800FFF7E0FA0023C2
:103100007B613B681800FFF7D7FF020010257B1991
:103110001100180000F052FA0C243B197A19110022
:10312000180000F079FA39197B68002218000CF0B9
:1031300051FF3B19180000F0D6F97B681800BD4616
:1031400006B0B0BD80B582B000AF78607B68180073
:10315000BD4602B080BD90B585B000AF78607B6899
:103160001800FFF7EFFF03001900201C00F0CDFA54
:10317000C046BD4605B090BDB0B586B000AF786022
:1031800039607B681800FFF79AFA00237B613B687F
:103190001800FFF7D7FF020010257B191100180057
:1031A00000F0A0FA0C243B197A191100180000F065
:1031B000C7FA39197B68002218000CF00BFF3B1985
:1031C000180000F090F97B681800BD4606B0B0BD4D
:1031D00080B582B000AF78607B681800BD4602B051
:1031E00080BD90B585B000AF78607B681800FFF7B0
:1031F000EFFF03001900201C00F01BFBC046BD467A
:1032000005B090BDB0B586B000AF786039607B681E
:103210001800FFF754FA00237B613B681800FFF7A2
:10322000D7FF020010257B191100180000F0EEFAFC
:103230000C243B197A191100180000F015FB3919FC
:103240007B68002218000CF0C5FE3B19180000F046
:103250004AF97B681800BD4606B0B0BD80B582B0A3
:1032600000AF78607B681800BD4602B080BD90B5A5
:1032700085B000AF78607B681800FFF7EFFF0300B0
:103280001900201C00F069FBC046BD4605B090BD8A
:10329000B0B586B000AF786039607B681800FFF782
:1032A0000EFA00237B613B681800FFF7D7FF02008E
:1032B00010257B191100180000F03CFB0C243B1971
:1032C0007A191100180000F063FB39197B6800229D
:1032D00018000CF07FFE3B19180000F004F97B6821
:1032E0001800BD4606B0B0BD80B582B000AF7860B2
:1032F00039607B681A683B681B689A4201D23B6858
:1033000000E07B681800BD4602B080BD80B582B089
:1033100000AF786001231800BD4602B080BD90B5B3
:1033200085B000AF786039603B681800FFF74CFE4D
:1033300001007B68221C180000F046FBC046BD4619
:1033400005B090BD80B582B000AF78607B68180092
:1033500000F057FB03001800FFF797FAC046BD4680
:1033600002B080BDB0B586B000AFF860B960FB1D9B
:103370001A70FB1D1B78022B0FD0032B14D0012BCE
:1033800018D1FB68180000F04FFB0400BB68180060
:1033900000F037FB030023600CE0B968FB682A1CCF
:1033A000180000F04EFB05E0FB68211C180000F03F
:1033B00065FBC04600231800BD4606B0B0BD90B501
:1033C00083B000AF786039607C683B681800FFF715
:1033D0002DFE03001900200000F005F87B6818009E
:1033E000BD4603B090BD90B583B000AF7860396042
:1033F0007C683B681800FFF719FE030019002000E5
:1034000000F005F87B681800BD4603B090BD80B59C
:1034100082B000AF786039603B681800FFF706FEA5
:1034200002007B6812681A607B681800BD4602B013
:1034300080BD80B582B000AF786039607B683A6843
:103440001100180000F03EFB7B681800BD4602B07A
:1034500080BD90B583B000AF786039607C683B6810
:103460001800FFF7E3FD030019002000FFF7A7FF96
:103470007868BD4603B090BD80B582B000AF3B1DFB
:10348000187039603B681800FFF7D0FD0300180082
:10349000FFF76AFAC046BD4602B080BD80B582B073
:1034A00000AF78607B681800BD4602B080BDB0B543
:1034B00082B000AF786039603B681800FFF7EEFF1C
:1034C0000500082002F0A9FE03001C0029002000CE
:1034D00000F02EFB7B682100180000F047FB7868A5
:1034E000BD4602B0B0BD80B584B000AF78607B68E7
:1034F000180000F04BFB0300FB60FB681B68002B0F
:103500000AD07B68180000F04EFB0200FB681B68C5
:103510001900100000F054FBFB6800221A607B6861
:103520001800BD4604B080BD90B583B000AF786090
:1035300039607C683B681800FFF7BEFD0300190086
:10354000200000F005F87B681800BD4603B090BD70
:1035500090B583B000AF786039607C683B68180034
:10356000FFF7AAFD03001900200000F005F87B68B2
:103570001800BD4603B090BD80B582B000AF786042
:1035800039603B681800FFF797FD02007B681268FE
:103590001A607B681800BD4602B080BD80B582B05D
:1035A00000AF786039607B683A681100180000F05D
:1035B00030FB7B681800BD4602B080BD90B583B07B
:1035C00000AF786039607C683B681800FFF774FDD5
:1035D000030019002000FFF7A7FF7868BD4603B07D
:1035E00090BD80B582B000AF3B1D187039603B685C
:1035F0001800FFF761FD03001800FFF7C2F9C0468D
:10360000BD4602B080BD80B582B000AF78607B68F7
:103610001800BD4602B080BDB0B582B000AF786082
:1036200039603B681800FFF7EEFF0500082002F044
:10363000F4FD03001C002900200000F013FB7B6850
:103640002100180000F092FA7868BD4602B0B0BDC3
:1036500090B583B000AF786039607C683B68180033
:10366000FFF770FD03001900200000F005F87B68EB
:103670001800BD4603B090BD90B583B000AF786030
:1036800039607C683B681800FFF75CFD0300190097
:10369000200000F005F87B681800BD4603B090BD1F
:1036A00080B582B000AF786039603B681800FFF7E2
:1036B00049FD02007B6812681A607B681800BD46ED
:1036C00002B080BD80B582B000AF786039607B68A1
:1036D0003A681100180000F0F9FA7B681800BD463E
:1036E00002B080BD90B583B000AF786039607C686F
:1036F0003B681800FFF726FD030019002000FFF7C4
:10370000A7FF7868BD4603B090BD80B582B000AF1A
:103710003B1D187039603B681800FFF713FD03006C
:103720001800FFF73BF9C046BD4602B080BD80B52A
:1037300082B000AF78607B681800BD4602B080BDE3
:10374000B0B582B000AF786039603B681800FFF711
:10375000EEFF0500082002F060FD03001C002900B8
:10376000200000F0DBFA7B682100180000F0FEF971
:103770007868BD4602B0B0BD90B583B000AF786048
:1037800039607C683B681800FFF722FD03001900D0
:10379000200000F005F87B681800BD4603B090BD1E
:1037A00090B583B000AF786039607C683B681800E2
:1037B000FFF70EFD03001900200000F005F87B68FC
:1037C0001800BD4603B090BD80B582B000AF7860F0
:1037D00039603B681800FFF7FBFC02007B68126849
:1037E0001A607B681800BD4602B080BD80B582B00B
:1037F00000AF786039607B683A681100180000F00B
:10380000C1FA7B681800BD4602B080BD90B583B098
:1038100000AF786039607C683B681800FFF7D8FC1F
:10382000030019002000FFF7A7FF7868BD4603B02A
:1038300090BD80B582B000AF3B1D187039603B6809
:103840001800FFF7C5FC03001800FFF7B4F8C046E6
:10385000BD4602B080BD80B582B000AF78607B68A5
:103860001800BD4602B080BDB0B582B000AF786030
:1038700039603B681800FFF7EEFF0500082002F0F2
:10388000CCFC03001C002900200000F0A3FA7B6898
:103890002100180000F06AF97868BD4602B0B0BD9A
:1038A00090B583B000AF786039607C683B681800E1
:1038B000FFF7D4FC03001900200000F005F87B6836
:1038C0001800BD4603B090BD90B583B000AF7860DE
:1038D00039607C683B681800FFF7C0FC03001900E2
:1038E000200000F005F87B681800BD4603B090BDCD
:1038F00080B582B000AF786039603B681800FFF790
:10390000ADFC02007B6812681A607B681800BD4637
:1039100002B080BD80B582B000AF786039607B684E
:103920003A681100180000F089FA7B681800BD465B
:1039300002B080BD90B583B000AF786039607C681C
:103940003B681800FFF78AFC030019002000FFF70E
:10395000A7FF7868BD4603B090BD80B582B000AFC8
:103960003B1D187039603B681800FFF777FC0300B7
:103970001800FFF72DF8C046BD4602B080BD80B5E7
:1039800082B000AF78607B681800BD4602B080BD91
:10399000B0B582B000AF786039603B681800FFF7BF
:1039A000EEFF0500082002F038FC03001C0029008F
:1039B000200000F06BFA7B682100180000F0D6F8B8
:1039C0007868BD4602B0B0BD90B585B000AFF86074
:1039D000B9603B1D1A70BB681800FFF7F5FA0400C8
:1039E000FB681800FEF781FD030019000420FEF7B4
:1039F0001DFD031E01D022681A60C046BD4605B0F9
:103A000090BD80B584B000AF78607B68180000F08E
:103A10005BFA0300180000F064FA0300FB60FB6827
:103A20001800BD4604B080BD80B582B000AF78609C
:103A30007B681800FEF759FD03001800BD4602B070
:103A400080BD90B585B000AFF860B9603B1D1A70BD
:103A5000BB68180000F038FA0400FB681800FEF795
:103A600044FD030019000420FEF7E0FC031E01D012
:103A700022681A60C046BD4605B090BD80B582B0D0
:103A800000AF78603B0019707B68180000F032FAD4
:103A9000C046BD4602B080BD80B582B000AF786040
:103AA0007B68180000F005F803001800BD4602B05E
:103AB00080BD80B582B000AF78607B681800BD46DD
:103AC00002B080BD90B583B000AF786039607C688B
:103AD0003B681800FFF7E0FF03001800FFF7A6FAA5
:103AE000030019002000FFF792FC7B681800BD4618
:103AF00003B090BD80B582B000AF7860034A7B68A8
:103B00001A607B681800BD4602B080BD242B0108F6
:103B100080B582B000AF786039607B683A68110088
:103B20001800FFF786FC7B681800BD4602B080BD18
:103B300090B583B000AF786039607B681800FFF7FC
:103B4000D9FF094A7B681A607B681C1D3B68180016
:103B5000FFF7A4FC030019002000FFF7D9FF7B68E2
:103B60001800BD4603B090BDFC26010880B582B0A8
:103B700000AF786039607B683A681100180000F087
:103B8000C6F97B681800BD4602B080BD80B582B022
:103B900000AF78607B68180000F0CEF903001800D1
:103BA000BD4602B080BD80B582B000AF78607B6852
:103BB000180000F0CEF903001800BD4602B080BD29
:103BC00080B582B000AF786039603B68002B06D0CA
:103BD0003B681B6804331B683A6810009847C0466E
:103BE000BD4602B080BD80B582B000AF78607B6812
:103BF000180000F005F803001800BD4602B080BDB3
:103C000080B582B000AF78607B681800BD4602B016
:103C100080BD90B583B000AF786039607C683B6848
:103C20001800FFF7E0FF03001800FFF745FA030054
:103C300019002000FFF7A0FC7B681800BD4603B008
:103C400090BD80B582B000AF786039607B683A681B
:103C500011001800FFF7A2FC7B681800BD4602B0F7
:103C600080BD000090B583B000AF786039607B689C
:103C70001800FFF73FFF094A7B681A607B681C1D2C
:103C80003B681800FFF7BFFC030019002000FFF796
:103C9000D8FF7B681800BD4603B090BDE826010838
:103CA00080B582B000AF78607B68180000F005F83E
:103CB00003001800BD4602B080BD80B582B000AFE1
:103CC00078607B681800BD4602B080BD90B583B0B7
:103CD00000AF786039607C683B681800FFF7E0FF50
:103CE00003001800FFF72EFA030019002000FFF769
:103CF000D7FC7B681800BD4603B090BD80B582B08C
:103D000000AF786039607B683A6811001800FFF7EF
:103D1000D9FC7B681800BD4602B080BD90B583B069
:103D200000AF786039607B681800FFF7E3FE094A4E
:103D30007B681A607B681C1D3B681800FFF7F7FC66
:103D4000030019002000FFF7D9FF7B681800BD466B
:103D500003B090BDD426010880B582B000AF786072
:103D60007B68180000F005F803001800BD4602B09B
:103D700080BD80B582B000AF78607B681800BD461A
:103D800002B080BD90B583B000AF786039607C68C8
:103D90003B681800FFF7E0FF03001800FFF718FA70
:103DA000030019002000FFF70FFD7B681800BD46D7
:103DB00003B090BD80B582B000AF786039607B6899
:103DC0003A6811001800FFF711FD7B681800BD4626
:103DD00002B080BD90B583B000AF786039607B6879
:103DE0001800FFF787FE094A7B681A607B681C1D74
:103DF0003B681800FFF72FFD030019002000FFF7B4
:103E0000D9FF7B681800BD4603B090BDC0260108ED
:103E100080B582B000AF78607B68180000F005F8CC
:103E200003001800BD4602B080BD80B582B000AF6F
:103E300078607B681800BD4602B080BD90B583B045
:103E400000AF786039607C683B681800FFF7E0FFDE
:103E500003001800FFF702FA030019002000FFF723
:103E600047FD7B681800BD4603B090BD80B582B0A9
:103E700000AF786039607B683A6811001800FFF77E
:103E800049FD7B681800BD4602B080BD90B583B087
:103E900000AF786039607B681800FFF72BFE094A95
:103EA0007B681A607B681C1D3B681800FFF767FD84
:103EB000030019002000FFF7D9FF7B681800BD46FA
:103EC00003B090BDAC26010880B582B000AF786029
:103ED0007B681800FEF712FB03001800BD4602B015
:103EE00080BD80B582B000AF78607B681800BD46A9
:103EF00002B080BD80B582B000AF78607B681800EA
:103F0000FEF7F3FA03001800BD4602B080BD80B58D
:103F100082B000AF786039607B68180000F026F846
:103F20007B681800FFF732FE03003A681A607B686E
:103F30001800BD4602B080BD80B582B000AF786089
:103F40007B68180000F01FF803001800BD4602B09F
:103F500080BD80B582B000AF78607B68180000F04B
:103F60001FF803001800BD4602B080BD80B582B0C6
:103F700000AF78607B68180000F01FF87B681800BD
:103F8000BD4602B080BD80B582B000AF78607B686E
:103F9000180000F023F803001800BD4602B080BDF1
:103FA00080B582B000AF78607B68180000F023F81D
:103FB00003001800BD4602B080BD80B582B000AFDE
:103FC00078607B68180000F023F87B68180000F028
:103FD0002CF87B681800BD4602B080BD80B582B069
:103FE00000AF78607B68180000F02BF80300180021
:103FF000BD4602B080BD80B582B000AF78607B68FE
:10400000180000F027F803001800BD4602B080BD7C
:1040100080B582B000AF78607B68180000F027F8A8
:104020007B681800BD4602B080BD80B582B000AF8D
:1040300078607B6800221A607B681800BD4602B079
:1040400080BD80B582B000AF78607B681800BD4647
:1040500002B080BD80B582B000AF78607B68180088
:1040600000F00EF803001800BD4602B080BD80B518
:1040700082B000AF78607B681800BD4602B080BD9A
:1040800080B582B000AF78607B681800BD4602B092
:1040900080BD000080B582B000AF7860054A7B68C3
:1040A0001A607B6818000BF087FF7B681800BD461C
:1040B00002B080BDAC26010880B582B000AF786048
:1040C0007B681800FFF7E6FF7B680821180002F004
:1040D000BDF87B681800BD4602B080BD80B582B0D7
:1040E00000AF7860054A7B681A607B6818000BF0A7
:1040F00063FF7B681800BD4602B080BDC026010882
:1041000080B582B000AF78607B681800FFF7E6FFEB
:104110007B680821180002F099F87B681800BD46FA
:1041200002B080BD80B582B000AF7860054A7B6880
:104130001A607B6818000BF03FFF7B681800BD46D3
:1041400002B080BDD426010880B582B000AF78608F
:104150007B681800FFF7E6FF7B680821180002F073
:1041600075F87B681800BD4602B080BD80B582B08E
:1041700000AF7860054A7B681A607B6818000BF016
:104180001BFF7B681800BD4602B080BDE826010811
:1041900080B582B000AF78607B681800FFF7E6FF5B
:1041A0007B680821180002F051F87B681800BD46B2
:1041B00002B080BD80B582B000AF7860054A7B68F0
:1041C0001A607B6818000BF0F7FE7B681800BD468C
:1041D00002B080BDFC26010880B582B000AF7860D7
:1041E0007B681800FFF7E6FF7B680821180002F0E3
:1041F0002DF87B681800BD4602B080BD80B582B046
:1042000000AF7860054A7B681A607B681800FEF78B
:10421000B9F97B681800BD4602B080BD9828010836
:1042200080B582B000AF78607B681800FFF7E6FFCA
:104230007B680821180002F009F87B681800BD4669
:1042400002B080BD80B582B000AF7860054A7B685F
:104250001A607B681800FEF727FB7B681800BD46D4
:1042600002B080BD4028010880B582B000AF786000
:104270007B681800FFF7E6FF7B680C21180001F04F
:10428000E5FF7B681800BD4602B080BD80B582B0F6
:1042900000AF7860054A7B681A607B681800FEF7FB
:1042A00071F97B681800BD4602B080BDB4280108D2
:1042B00080B582B000AF78607B681800FFF7E6FF3A
:1042C0007B680C21180001F0C1FF7B681800BD4617
:1042D00002B080BD80B582B000AF7860054A7B68CF
:1042E0001A607B681800FEF7FFFA7B681800BD466D
:1042F00002B080BD7C28010880B582B000AF786034
:104300007B681800FFF7E6FF7B680C21180001F0BE
:104310009DFF7B681800BD4602B080BD80B582B0AD
:1043200000AF7860054A7B681A607B681800FEF76A
:10433000FBFA7B681800BD4602B080BD602801080A
:1043400080B582B000AF78607B681800FFF7E6FFA9
:104350007B685021180001F079FF7B681800BD468A
:1043600002B080BD80B582B000AF78607B68043356
:10437000180000F038F8C046BD4602B080BD80B5D8
:1043800082B000AF78607B680433180000F038F822
:10439000C046BD4602B080BD80B582B000AF786037
:1043A0007B680433180000F038F8C046BD4602B000
:1043B00080BD80B582B000AF78607B6804331800A0
:1043C00000F038F8C046BD4602B080BD80B582B06E
:1043D00000AF78607B680433180000F038F8C046FE
:1043E000BD4602B080BD80B584B000AF78607B6808
:1043F000111C180000F038F8C046BD4604B080BD5E
:1044000080B584B000AF78607B68111C180000F0A4
:1044100041F8C046BD4604B080BD80B584B000AF51
:1044200078607B68111C180000F04AF8C046BD4651
:1044300004B080BD80B584B000AF78607B68111C8B
:10444000180000F053F8C046BD4604B080BD80B5EA
:1044500084B000AF78607B68111C180000F05CF835
:10446000C046BD4604B080BD80B582B000AF786064
:104470003B0019707B68180000F064F80300180016
:1044800000F083F803001800FEF7F1FEC046BD46B9
:1044900002B080BD80B582B000AF78603B0019707B
:1044A0007B68180000F082F80300180000F0A1F803
:1044B00003001800FEF795FEC046BD4602B080BD61
:1044C00080B582B000AF78603B0019707B6818003F
:1044D00000F0A0F80300180000F0BFF80300180077
:1044E000FEF739FEC046BD4602B080BD80B582B041
:1044F00000AF78603B0019707B68180000F0BEF8D0
:104500000300180000F0DDF803001800FEF7DDFDE1
:10451000C046BD4602B080BD80B582B000AF7860B5
:104520003B0019707B68180000F0DCF803001800ED
:1045300000F0FBF803001800FEF781FDC046BD4601
:1045400002B080BD80B582B000AF78607B68180093
:10455000BD4602B080BD80B582B000AF78607B6898
:10456000180000F005F803001800BD4602B080BD39
:1045700080B582B000AF78607B681800FFF748FC18
:1045800003001800BD4602B080BD80B582B000AF08
:1045900078607B681800FFF7DEFF0300180000F06A
:1045A000D5F803001800BD4602B080BD80B582B0CA
:1045B00000AF78607B681800BD4602B080BD80B552
:1045C00082B000AF78607B68180000F005F8030047
:1045D0001800BD4602B080BD80B582B000AF7860E3
:1045E0007B681800FFF7B8FB03001800BD4602B057
:1045F00080BD80B582B000AF78607B681800FFF79F
:10460000DEFF0300180000F0AAF803001800BD4602
:1046100002B080BD80B582B000AF78607B681800C2
:10462000BD4602B080BD80B582B000AF78607B68C7
:10463000180000F005F803001800BD4602B080BD68
:1046400080B582B000AF78607B681800FFF728FB68
:1046500003001800BD4602B080BD80B582B000AF37
:1046600078607B681800FFF7DEFF0300180000F099
:104670007FF803001800BD4602B080BD80B582B04F
:1046800000AF78607B681800BD4602B080BD80B581
:1046900082B000AF78607B68180000F005F8030076
:1046A0001800BD4602B080BD80B582B000AF786012
:1046B0007B681800FFF797FA03001800BD4602B0A8
:1046C00080BD80B582B000AF78607B681800FFF7CE
:1046D000DEFF0300180000F054F803001800BD4688
:1046E00002B080BD80B582B000AF78607B681800F2
:1046F000BD4602B080BD80B582B000AF78607B68F7
:10470000180000F005F803001800BD4602B080BD97
:1047100080B582B000AF78607B681800FFF7BCF905
:1047200003001800BD4602B080BD80B582B000AF66
:1047300078607B681800FFF7DEFF0300180000F0C8
:1047400029F803001800BD4602B080BD80B582B0D4
:1047500000AF78607B681800BD4602B080BD80B5B0
:1047600082B000AF78607B681800BD4602B080BDA3
:1047700080B582B000AF78607B681800BD4602B09B
:1047800080BD80B582B000AF78607B681800BD4600
:1047900002B080BD80B582B000AF78607B68180041
:1047A000BD4602B080BD80B582B000AF7860012008
:1047B00009F0B6F902007B681A60C046BD4602B037
:1047C00080BD80B582B000AF78607B681B68180040
:1047D00009F08EFB00231800BD4602B080BD80B5F5
:1047E00082B000AF78607B681A6801235B421900D1
:1047F000100009F075FA0300013B5A1E9341DBB229
:104800001800BD4602B080BD80B582B000AF7860B0
:104810007B68186800230022002109F0F1F80300EA
:10482000013B5A1E9341DBB21800BD4602B080BD69
:1048300080B582B000AF78607B681800FFF7B3FFE7
:104840007B681800BD4602B080BD80B582B000AF65
:1048500078607B681800FFF7B4FF7B681800BD46DE
:1048600002B080BD80B584B000AF78607B6818006E
:10487000FFF7B5FF0300FB60FB68002B03D0FB686C
:1048800018000BF061FEC046BD4604B080BD80B587
:1048900082B000AF78607B681800FFF7B5FFC046B4
:1048A000BD4602B080BD80B582B000AF78607B6845
:1048B0001800FFF7BDFF7B681800BD4602B080BD41
:1048C00080B582B000AF786064231800BD4602B0A6
:1048D00080BD0000B0B584B000AF78603960234A75
:1048E0000823FB181100180000F096F87B681B687D
:1048F000002B03D07B681B68022B03D13B68180098
:104900000CF0DAFE7B681B68012B03D07B681B6808
:10491000022B21D1164B180000F09EF80400144B16
:104920001800FFF7CDFF01003B681A0020000CF0D3
:104930009BFF0300FB607B685D687B685B681B68AE
:1049400008331C680A4B180000F086F80100FB6869
:104950009AB214232800A0470823FB18180000F07F
:104960006DF8C046BD4604B0B0BDC046C8050020C5
:1049700064050020B0B586B000AFF860B9607A6019
:10498000234A1023FB181100180000F045F8FB68BB
:104990001B68002B03D0FB681B68022B05D17A68CB
:1049A000BB68110018000CF087FEFB681B68012B28
:1049B00003D0FB681B68022B21D1164B180000F0B6
:1049C0004BF80400134B1800FFF77AFF01007B68D7
:1049D000BA6820000CF048FF03007B61FB685D684B
:1049E000FB685B681B6808331C680A4B180000F002
:1049F00033F801007B699AB214232800A0471023E2
:104A0000FB18180000F01AF8C046BD4606B0B0BD4D
:104A1000C80500206405002080B582B000AF786032
:104A200039607B683A681A607B681B681800FFF77A
:104A300019FF7B681800BD4602B080BD80B582B00A
:104A400000AF78607B681B681800FFF720FF7B6869
:104A50001800BD4602B080BD80B582B000AF78605E
:104A60007B68180000F005F803001800BD4602B08E
:104A700080BD80B582B000AF78607B68180000F020
:104A800005F803001800BD4602B080BD80B582B0B5
:104A900000AF78607B681800BD4602B080BD80B56D
:104AA00082B000AF78607B681800FFF7CEFE7B68AD
:104AB0001800BD4602B080BD80B582B000AF7860FE
:104AC00039607B68012B07D13B680B4A934203D1C5
:104AD0000A4B1800FFF7E7FE7B68002B07D13B6805
:104AE000054A934203D1054B1800FFF7D8FFC04693
:104AF000BD4602B080BDC046FFFF0000C8050020D3
:104B000080B500AF034B19000120FFF7D5FFBD466C
:104B100080BDC046FFFF000080B500AF034B190009
:104B20000020FFF7C9FFBD4680BDC046FFFF000063
:104B300090B583B000AF786039603B685C681B68F3
:104B40007A68136054607B681800BD4603B090BD5E
:104B500090B500AF0023002418002100BD4690BD91
:104B600090B583B000AF786039603B685C681B68C3
:104B70007A68136054607B681800BD4603B090BD2E
:104B800090B583B000AF78607B685C681B681800E4
:104B90002100BD4603B090BD80B582B000AF786003
:104BA0000C231800BD4602B080BD90B583B000AFA5
:104BB000786039603A6812681300002214007A683D
:104BC000136054607B681800BD4603B090BD0000C0
:104BD000F0B59DB000AF7860A54A4023FB182021B6
:104BE000180001F053FF0023FB660023BB6600237F
:104BF0007B6610210C007B18180030231A0000215E
:104C00000CF0F5F921007B189A4A1A6000233B66E4
:104C1000984BFB644C23FA187B181100180000F025
:104C20003FF95F23FB1800221A705F23FB181B78E3
:104C3000002B00D1E0E0FB6E8F4A934200D8FFE0EA
:104C40007B681B685E257C190C22BA180E21791826
:104C5000180004F057FE030023707B191B78002B0B
:104C600000D18CE00E23FB181B88002B00D186E0BE
:104C70000E23FB181D883B6E5A1C3A661026BA1983
:104C80001900100000F024F904002800FCF766FB6E
:104C9000031C23607B6800221A61BB19180000F016
:104CA00027F90500BB19180000F02FF901000023B7
:104CB00000241A002300280000F035F904000D003C
:104CC000BB191800FFF768FF03001800FDF7A4F9EF
:104CD00002000B0020002900FCF79CFE03000C00E2
:104CE00018002100FDF71CFA031CBB65BB19180056
:104CF000FFF752FF01003A6E00238A425B41DBB2AC
:104D0000002B01D000233B667B68D8680E23FB187C
:104D10001B881A00002103F0C1FB7B68DC68B86DBA
:104D2000FBF716FC03009BB21A000121200003F0E0
:104D3000B5FB7B685C68B86DFBF70AFC03001900E3
:104D4000200003F03DF9BB6E4B4A934231D97B689A
:104D500098680E23FB181B881A00484B1900FFF7B0
:104D600009FE7B689C68B86DFBF7F2FB0200444BC0
:104D700019002000FFF7FEFD0023BB6619E07B68E9
:104D80001B695A1C7B681A617B689B683D4A11004D
:104D90001800FFF79FFD7B681B69052B0AD97B680C
:104DA0009B68394A11001800FFF794FD05F0E0F9FF
:104DB00000E0C0464023FB18180001F09BFE0300F2
:104DC0001A0001235340DBB2002B12D07B681B6812
:104DD000180004F02DFE031E06D07B689B682B4A4A
:104DE00011001800FFF776FD7B685B68180003F080
:104DF0008BF90023FB6623E07B689C687B6E244A6A
:104E0000D21AFA2399001000FBF7A4F903001A0044
:104E1000204B19002000FFF7ADFD7B6E1E4A934228
:104E200003D95F23FB1801221A707B6EFA229200CD
:104E3000944663447B667B685B68180003F02EF938
:104E4000164A50243B1911001800FFF7AEFE3B191B
:104E5000180000F0F3F9FB6EFA22920094466344C6
:104E6000FB66BB6EFA22920094466344BB66DCE6A6
:104E7000000400500000C843871300003C240108D0
:104E8000482401085C2401087424010890240108C6
:104E900020BF0200C42401081FBF02007C270108B4
:104EA00090B583B000AF786039607B68180000F07F
:104EB0001FF804007B681800FFF76EFE01003B68D6
:104EC0001A00200000F0EDF9C046BD4603B090BDC9
:104ED00080B582B000AF786039607B683A681100B5
:104EE000180000F0F2F903001800BD4602B080BDC2
:104EF00080B582B000AF78607B68180000F0F2F9EE
:104F000003001800BD4602B080BD80B582B000AF7E
:104F100078607B68180000F0E5F903003033180072
:104F2000BD4602B080BD90B585B000AFF860B960F5
:104F30003A607B60FA68BB689A4214D0FB681B68D1
:104F4000181CFDF79BF803000C001A0023003868BA
:104F50007968FCF743FA03000C003B607C60FB6857
:104F60000433FB60E6E73B687C6818002100BD461F
:104F700005B090BD90B583B000AF786039603B68F4
:104F80005C681B687A68136054607B681800BD46D3
:104F900003B090BD90B585B000AF7860FFF7D8FD45
:104FA00003000C00BB60FC600823FA187B6811004A
:104FB0001800FFF7DFFF7868BD4605B090BD80B5EB
:104FC00082B000AF786039607A683B6811001800E1
:104FD00000F015F803001A0001235340DBB218005B
:104FE000BD4602B080BD90B583B000AF78607B68ED
:104FF0005C681B6818002100BD4603B090BDB0B5C9
:1050000086B000AF786039607B685C681B68BB6005
:10501000FC600823FB181800FFF7E5FF04000D00F3
:105020003B681A685B683A617B611023FB181800C3
:10503000FFF7D9FF02000B000121AB4204DC01D1D4
:10504000A24201D80023191CCBB21800BD4606B0FD
:10505000B0BD90B585B000AF786039603B6818008E
:10506000FFF7C1FFFA2292000023FBF723FA0300A7
:105070000C00BB60FC600823FA187B681100180064
:10508000FFF76EFD7868BD4605B090BD80B582B073
:1050900000AF786039607B683A6811001800FFF74C
:1050A000D8FF7868BD4602B080BD90B585B000AF2E
:1050B000786039603B681800FFF762FDFA229200C1
:1050C0000023FBF71BFA03000C00BB60FC60082305
:1050D000FA187B6811001800FFF74CFF7868BD468E
:1050E00005B090BD80B582B000AF786039607B6854
:1050F0003A6811001800FFF7D8FF7868BD4602B083
:1051000080BD90B585B000AF7860396008243B1948
:105110003A6811001800FFF7E5FF3B191800FFF788
:1051200062FF03000C007A68136054607B6818000B
:10513000BD4605B090BDF0B58BB000AFF860B9606A
:105140007A60BB685C681B68BB61FC611823FB1854
:105150001800FFF748FF05000E007A6820243B196D
:1051600011001800FFF7CDFF3B191800FFF73BFFB8
:1051700003000C00ED1AA6412B0034003B617C615A
:105180001023FA18FB6811001800FFF7F3FEF86807
:10519000BD460BB0F0BDF0B58BB000AFF861B961A2
:1051A000BB691800FFF71FFF0A00010039607A6031
:1051B0000B001400D80E62017A617A6902437A61A9
:1051C0005B013B613B697C6939687A685B1A944191
:1051D000D80D6202FA60FA680243FA605B02BB60B3
:1051E000BB68FC6839687A685B185441980EA60160
:1051F00006439D01ED1AA6412B0034005B18544173
:105200003B627C6208231822BA18D218FB6911008D
:105210001800FFF78DFCF869BD460BB0F0BD80B5F6
:1052200082B000AF786039607B683A68110018007E
:10523000FFF7B1FF7868BD4602B080BDB0B58AB057
:1052400000AF786018243B191800FFF7A3FE3A1945
:105250007B6811001800FFF7B2FE031E1DD1102459
:105260003B197A6811001800FFF710FF20257B1901
:105270003A1979681800FFF75EFF0823FB187A19BE
:1052800011001800FFF7CBFFBB68FC68386979692B
:105290001A0023000AF004FF00E0C046BD460AB031
:1052A000B0BD80B584B000AFF860B9607A60FB68CB
:1052B000180000F024F87A68BB68190000F028F89C
:1052C00003001800BD4604B080BD80B582B000AFB9
:1052D000786039603B689B007A68D3181800BD4637
:1052E00002B080BD80B582B000AF78607B681800E6
:1052F00000F02BF803001800BD4602B080BD80B559
:1053000082B000AF78607B681800BD4602B080BDF7
:1053100080B586B000AFF860B9607A607B681B68C2
:105320003B61BB687B617B69002B09D0FB683A69F4
:105330001A607B69013B7B61FB680433FB60F2E729
:10534000FB681800BD4606B080BD80B582B000AFD6
:1053500078607B681800BD4602B080BD90B585B00E
:1053600000AF786039603B681800FFF709FC094A14
:105370000023FBF7C3F803000C00BB60FC600823AC
:10538000FA187B6811001800FFF7D2FB7868BD4659
:1053900005B090BD00CA9A3B80B582B000AF78607E
:1053A00039607B683A6811001800FFF7D7FF78680A
:1053B000BD4602B080BD90B583B000AF7860396063
:1053C0003A6812681300002214007A68136054606F
:1053D0007B681800BD4603B090BD000090B585B055
:1053E00000AF78607B68180000F0D2F8031E18D078
:1053F0007B68181D7B682C331822190004F036F8DE
:10540000031E07D07B689B6A0C4A11001800FFF747
:1054100061FA06E07B689B6A094A11001800FFF7F1
:1054200059FA084A08243B1911001800FFF7C3FF76
:105430003B19180000F060FAD4E7C046F4240108D4
:105440001025010880270108B0B584B000AF78604E
:105450007B68181D7B682C330F257C1918221900D6
:1054600004F03EF8030023707B68D96A7B685A6CAD
:105470000E23FB188A1A51424A411A707B191B7875
:10548000002B04D00E23FB181B78002B03D17B6864
:10549000180000F04FF87B6818687B685B8E1A0074
:1054A000082102F0FBFF7B6818687B681B8E1A00DE
:1054B000092102F0F3FF7B6818687B689B8E1A0055
:1054C000002103F089F87B6818687B68DB8E1A007E
:1054D000012103F081F87B6818687B681B8F1A0034
:1054E000022103F079F87B6818687B685B8F1A00EB
:1054F000032103F071F87B6818687B689B8F1A00A2
:10550000042103F069F87B6818687B6840229B5E81
:105510009BB21A00052103F05FF87B6818687B686E
:10552000DB8F1A00062103F057F8C046BD4604B0D1
:10553000B0BD000080B582B000AF78607B68C82243
:1055400092009A867B68104ADA867B680F4A1A8630
:105550007B680E4A5A867B689022D2005A877B6805
:10556000802252009A877B6833221A877B68402208
:105570008C21490099527B6896225200DA87C046F6
:10558000BD4602B080BDC046DC050000A08CFFFF18
:1055900080B584B000AF78600F23FB1800221A702A
:1055A0007B68DA6A7B685B6C9A4207D07B685A6CCE
:1055B0007B68DA620F23FB1801221A707B681B6874
:1055C0000C22BA180821180002F02CFF031E0FD07D
:1055D0007B685A8E0C23FB181B889A4208D00C2338
:1055E000FB181A887B685A860F23FB1801221A7051
:1055F0007B681B680C22BA180921180002F012FF00
:10560000031E0FD07B681A8E0C23FB181B889A424E
:1056100008D00C23FB181A887B681A860F23FB1806
:1056200001221A707B681B680C22BA18002118002E
:1056300002F096FF031E0FD07B689A8E0C23FB1896
:105640001B889A4208D00C23FB181A887B689A861C
:105650000F23FB1801221A707B681B680C22BA18F2
:105660000121180002F07CFF031E0FD07B68DA8E48
:105670000C23FB181B889A4208D00C23FB181A88AD
:105680007B68DA860F23FB1801221A707B681B687F
:105690000C22BA180221180002F062FF031E0FD07C
:1056A0007B681A8F0C23FB181B889A4208D00C23A6
:1056B000FB181A887B681A870F23FB1801221A70BF
:1056C0007B681B680C22BA180321180002F048FFFF
:1056D000031E0FD07B685A8F0C23FB181B889A423D
:1056E00008D00C23FB181A887B685A870F23FB18F5
:1056F00001221A707B681B680C22BA18042118005A
:1057000002F02EFF031E0FD07B689A8F0C23FB182C
:105710001B889A4208D00C23FB181A887B689A874A
:105720000F23FB1801221A707B681B680C22BA1821
:105730000521180002F014FF031E13D07B684022DD
:105740009B5E1A000C23FB181B889A420AD00C237C
:10575000FB181B8819B27B68402299520F23FB1853
:1057600001221A707B681B680C22BA1806211800E7
:1057700002F0F6FE031E0FD07B68DA8F0C23FB18B5
:105780001B889A4208D00C23FB181A887B68DA879A
:105790000F23FB1801221A700F23FB181B78180027
:1057A000BD4604B080BD90B585B000AF7860FFF70E
:1057B000CFF903000C00BB60FC600823FA187B687B
:1057C00011001800FFF7CCF97868BD4605B090BD10
:1057D00080B582B000AF786039607A683B681100AC
:1057E000180000F009F803001A0001235340DBB24F
:1057F0001800BD4602B080BDB0B586B000AF78607D
:1058000039607B685C681B68BB60FC600823FB1820
:105810001800FFF7B5F904000D003B681A685B68D3
:105820003A617B611023FB181800FFF7A9F9020009
:105830000B000121AB4204DC01D1A24201D80023BC
:10584000191CCBB21800BD4606B0B0BD90B585B0EE
:1058500000AF786039603B681800FFF791F90300EA
:105860000C00BB60FC600823FA187B68110018006C
:10587000FFF776F97868BD4605B090BD80B582B077
:1058800000AF786039607B683A6811001800FFF754
:10589000DDFF7868BD4602B080BDF0B58BB000AFCB
:1058A000F860B9607A60BB685C681B68BB61FC61CA
:1058B0001823FB181800FFF763F905000E007B683A
:1058C0005C681B683B627C622023FB181800FFF7B2
:1058D00057F903000C00ED1AA6412B0034003B6180
:1058E0007C611023FA18FB6811001800FFF738F9E3
:1058F000F868BD460BB0F0BDB0B58AB000AF7860B7
:1059000018243B191800FFF74EFF3A197B68110065
:105910001800FFF75DFF031E1DD110243B197A68A4
:1059200011001800FFF7AAFF20257B193A197968A2
:105930001800FFF7B2FF0823FB187A1911001800AE
:10594000FFF72AFDBB68FC68386979691A002300F3
:105950000AF0A6FB00E0C046BD460AB0B0BD80B567
:1059600082B000AF78607B68181C0AF05FFF031CF0
:10597000181CBD4602B080BD80B582B000AF786013
:105980000A231800BD4602B080BD0000F0B5A5B0E6
:1059900000AF786000238C22BA181360002388229D
:1059A000BA18136038243B19180028231A00002164
:1059B0000BF01DFB3B19B64A1A6010257B19180025
:1059C00028231A0000210BF012FB7B19B14A1A6040
:1059D00000238422BA18136000238022BA181360AF
:1059E000AB4B3B666023FA183B191100180000F01E
:1059F000C7F9A84B7B666423FA187B1911001800BD
:105A000000F0BEF97F23FB1801221A707B681B6827
:105A10000822BA180C217918180004F025F9031E81
:105A200029D00823FA180C23F9187B68180000F015
:105A300041F984217B181B685A1C79180A603822A6
:105A4000BA181900100000F0B3F90300FA681A60E0
:105A500080217B181B685A1C79180A601022BA181A
:105A60001900100000F0A4F90300BA681A607F233F
:105A7000FB1800221A707F23FB181B780122534069
:105A8000DBB2002B00D1C7E07B680022DA60382649
:105A9000BB19180000F09CF90500BB19180000F0B4
:105AA000A4F90100002300241A0023002800FFF7B6
:105AB0003AFA04000D00BB191800FFF75DFF030060
:105AC0001800FCF7A9FA02000B0020002900FBF7E0
:105AD000A1FF03000C0018002100FCF721FB031CB0
